{
  "contractName": "LuckyBlock",
  "abi": [
    {
      "inputs": [
        {
          "internalType": "address",
          "name": "router",
          "type": "address"
        }
      ],
      "stateMutability": "nonpayable",
      "type": "constructor"
    },
    {
      "anonymous": false,
      "inputs": [
        {
          "indexed": true,
          "internalType": "address",
          "name": "owner",
          "type": "address"
        },
        {
          "indexed": true,
          "internalType": "address",
          "name": "spender",
          "type": "address"
        },
        {
          "indexed": false,
          "internalType": "uint256",
          "name": "value",
          "type": "uint256"
        }
      ],
      "name": "Approval",
      "type": "event"
    },
    {
      "anonymous": false,
      "inputs": [
        {
          "indexed": true,
          "internalType": "address",
          "name": "previousOwner",
          "type": "address"
        },
        {
          "indexed": true,
          "internalType": "address",
          "name": "newOwner",
          "type": "address"
        }
      ],
      "name": "OwnershipTransferred",
      "type": "event"
    },
    {
      "anonymous": false,
      "inputs": [
        {
          "indexed": false,
          "internalType": "uint256",
          "name": "tokensSwapped",
          "type": "uint256"
        },
        {
          "indexed": false,
          "internalType": "uint256",
          "name": "ethReceived",
          "type": "uint256"
        },
        {
          "indexed": false,
          "internalType": "uint256",
          "name": "tokensIntoLiqudity",
          "type": "uint256"
        }
      ],
      "name": "SwapAndLiquify",
      "type": "event"
    },
    {
      "anonymous": false,
      "inputs": [
        {
          "indexed": false,
          "internalType": "bool",
          "name": "enabled",
          "type": "bool"
        }
      ],
      "name": "SwapAndLiquifyEnabledUpdated",
      "type": "event"
    },
    {
      "anonymous": false,
      "inputs": [
        {
          "indexed": true,
          "internalType": "address",
          "name": "from",
          "type": "address"
        },
        {
          "indexed": true,
          "internalType": "address",
          "name": "to",
          "type": "address"
        },
        {
          "indexed": false,
          "internalType": "uint256",
          "name": "value",
          "type": "uint256"
        }
      ],
      "name": "Transfer",
      "type": "event"
    },
    {
      "inputs": [],
      "name": "admin",
      "outputs": [
        {
          "internalType": "address",
          "name": "",
          "type": "address"
        }
      ],
      "stateMutability": "view",
      "type": "function",
      "constant": true
    },
    {
      "inputs": [],
      "name": "burnFee",
      "outputs": [
        {
          "internalType": "uint256",
          "name": "",
          "type": "uint256"
        }
      ],
      "stateMutability": "view",
      "type": "function",
      "constant": true
    },
    {
      "inputs": [],
      "name": "distributionWallet",
      "outputs": [
        {
          "internalType": "address",
          "name": "",
          "type": "address"
        }
      ],
      "stateMutability": "view",
      "type": "function",
      "constant": true
    },
    {
      "inputs": [],
      "name": "feeDecimal",
      "outputs": [
        {
          "internalType": "uint256",
          "name": "",
          "type": "uint256"
        }
      ],
      "stateMutability": "view",
      "type": "function",
      "constant": true
    },
    {
      "inputs": [],
      "name": "feeTotal",
      "outputs": [
        {
          "internalType": "uint256",
          "name": "",
          "type": "uint256"
        }
      ],
      "stateMutability": "view",
      "type": "function",
      "constant": true
    },
    {
      "inputs": [],
      "name": "isFeeActive",
      "outputs": [
        {
          "internalType": "bool",
          "name": "",
          "type": "bool"
        }
      ],
      "stateMutability": "view",
      "type": "function",
      "constant": true
    },
    {
      "inputs": [
        {
          "internalType": "address",
          "name": "",
          "type": "address"
        }
      ],
      "name": "lastSellCycleStart",
      "outputs": [
        {
          "internalType": "uint256",
          "name": "",
          "type": "uint256"
        }
      ],
      "stateMutability": "view",
      "type": "function",
      "constant": true
    },
    {
      "inputs": [],
      "name": "liquidityFee",
      "outputs": [
        {
          "internalType": "uint256",
          "name": "",
          "type": "uint256"
        }
      ],
      "stateMutability": "view",
      "type": "function",
      "constant": true
    },
    {
      "inputs": [],
      "name": "listedAt",
      "outputs": [
        {
          "internalType": "uint256",
          "name": "",
          "type": "uint256"
        }
      ],
      "stateMutability": "view",
      "type": "function",
      "constant": true
    },
    {
      "inputs": [],
      "name": "lotteryPoolFee",
      "outputs": [
        {
          "internalType": "uint256",
          "name": "",
          "type": "uint256"
        }
      ],
      "stateMutability": "view",
      "type": "function",
      "constant": true
    },
    {
      "inputs": [],
      "name": "lotteryPoolWallet",
      "outputs": [
        {
          "internalType": "address",
          "name": "",
          "type": "address"
        }
      ],
      "stateMutability": "view",
      "type": "function",
      "constant": true
    },
    {
      "inputs": [],
      "name": "maxTxAmount",
      "outputs": [
        {
          "internalType": "uint256",
          "name": "",
          "type": "uint256"
        }
      ],
      "stateMutability": "view",
      "type": "function",
      "constant": true
    },
    {
      "inputs": [],
      "name": "maxTxAmountPercentage",
      "outputs": [
        {
          "internalType": "uint256",
          "name": "",
          "type": "uint256"
        }
      ],
      "stateMutability": "view",
      "type": "function",
      "constant": true
    },
    {
      "inputs": [],
      "name": "minTokensBeforeSwap",
      "outputs": [
        {
          "internalType": "uint256",
          "name": "",
          "type": "uint256"
        }
      ],
      "stateMutability": "view",
      "type": "function",
      "constant": true
    },
    {
      "inputs": [],
      "name": "nftRoyalPoolFee",
      "outputs": [
        {
          "internalType": "uint256",
          "name": "",
          "type": "uint256"
        }
      ],
      "stateMutability": "view",
      "type": "function",
      "constant": true
    },
    {
      "inputs": [],
      "name": "nftRoyalPoolWallet",
      "outputs": [
        {
          "internalType": "address",
          "name": "",
          "type": "address"
        }
      ],
      "stateMutability": "view",
      "type": "function",
      "constant": true
    },
    {
      "inputs": [],
      "name": "owner",
      "outputs": [
        {
          "internalType": "address",
          "name": "",
          "type": "address"
        }
      ],
      "stateMutability": "view",
      "type": "function",
      "constant": true
    },
    {
      "inputs": [],
      "name": "pancakeSwapV2Pair",
      "outputs": [
        {
          "internalType": "address",
          "name": "",
          "type": "address"
        }
      ],
      "stateMutability": "view",
      "type": "function",
      "constant": true
    },
    {
      "inputs": [],
      "name": "pancakeswapV2Router",
      "outputs": [
        {
          "internalType": "contract IPancakeswapV2Router02",
          "name": "",
          "type": "address"
        }
      ],
      "stateMutability": "view",
      "type": "function",
      "constant": true
    },
    {
      "inputs": [],
      "name": "renounceOwnership",
      "outputs": [],
      "stateMutability": "nonpayable",
      "type": "function"
    },
    {
      "inputs": [
        {
          "internalType": "address",
          "name": "",
          "type": "address"
        }
      ],
      "name": "sellCooldown",
      "outputs": [
        {
          "internalType": "uint256",
          "name": "",
          "type": "uint256"
        }
      ],
      "stateMutability": "view",
      "type": "function",
      "constant": true
    },
    {
      "inputs": [],
      "name": "sellCooldownAmount",
      "outputs": [
        {
          "internalType": "uint256",
          "name": "",
          "type": "uint256"
        }
      ],
      "stateMutability": "view",
      "type": "function",
      "constant": true
    },
    {
      "inputs": [],
      "name": "sellCooldownEnabled",
      "outputs": [
        {
          "internalType": "bool",
          "name": "",
          "type": "bool"
        }
      ],
      "stateMutability": "view",
      "type": "function",
      "constant": true
    },
    {
      "inputs": [],
      "name": "sellCooldownTime",
      "outputs": [
        {
          "internalType": "uint256",
          "name": "",
          "type": "uint256"
        }
      ],
      "stateMutability": "view",
      "type": "function",
      "constant": true
    },
    {
      "inputs": [],
      "name": "swapAndLiquifyEnabled",
      "outputs": [
        {
          "internalType": "bool",
          "name": "",
          "type": "bool"
        }
      ],
      "stateMutability": "view",
      "type": "function",
      "constant": true
    },
    {
      "inputs": [],
      "name": "taxFee",
      "outputs": [
        {
          "internalType": "uint256",
          "name": "",
          "type": "uint256"
        }
      ],
      "stateMutability": "view",
      "type": "function",
      "constant": true
    },
    {
      "inputs": [],
      "name": "taxFeeTotal",
      "outputs": [
        {
          "internalType": "uint256",
          "name": "",
          "type": "uint256"
        }
      ],
      "stateMutability": "view",
      "type": "function",
      "constant": true
    },
    {
      "inputs": [],
      "name": "teamWallet",
      "outputs": [
        {
          "internalType": "address",
          "name": "",
          "type": "address"
        }
      ],
      "stateMutability": "view",
      "type": "function",
      "constant": true
    },
    {
      "inputs": [
        {
          "internalType": "address",
          "name": "",
          "type": "address"
        }
      ],
      "name": "transferAmounts",
      "outputs": [
        {
          "internalType": "uint256",
          "name": "",
          "type": "uint256"
        }
      ],
      "stateMutability": "view",
      "type": "function",
      "constant": true
    },
    {
      "inputs": [
        {
          "internalType": "address",
          "name": "newOwner",
          "type": "address"
        }
      ],
      "name": "transferOwnership",
      "outputs": [],
      "stateMutability": "nonpayable",
      "type": "function"
    },
    {
      "stateMutability": "payable",
      "type": "receive",
      "payable": true
    },
    {
      "inputs": [],
      "name": "name",
      "outputs": [
        {
          "internalType": "string",
          "name": "",
          "type": "string"
        }
      ],
      "stateMutability": "view",
      "type": "function",
      "constant": true
    },
    {
      "inputs": [],
      "name": "symbol",
      "outputs": [
        {
          "internalType": "string",
          "name": "",
          "type": "string"
        }
      ],
      "stateMutability": "view",
      "type": "function",
      "constant": true
    },
    {
      "inputs": [],
      "name": "decimals",
      "outputs": [
        {
          "internalType": "uint8",
          "name": "",
          "type": "uint8"
        }
      ],
      "stateMutability": "view",
      "type": "function",
      "constant": true
    },
    {
      "inputs": [],
      "name": "totalSupply",
      "outputs": [
        {
          "internalType": "uint256",
          "name": "",
          "type": "uint256"
        }
      ],
      "stateMutability": "view",
      "type": "function",
      "constant": true
    },
    {
      "inputs": [
        {
          "internalType": "address",
          "name": "account",
          "type": "address"
        }
      ],
      "name": "balanceOf",
      "outputs": [
        {
          "internalType": "uint256",
          "name": "",
          "type": "uint256"
        }
      ],
      "stateMutability": "view",
      "type": "function",
      "constant": true
    },
    {
      "inputs": [
        {
          "internalType": "address",
          "name": "recipient",
          "type": "address"
        },
        {
          "internalType": "uint256",
          "name": "amount",
          "type": "uint256"
        }
      ],
      "name": "transfer",
      "outputs": [
        {
          "internalType": "bool",
          "name": "",
          "type": "bool"
        }
      ],
      "stateMutability": "nonpayable",
      "type": "function"
    },
    {
      "inputs": [
        {
          "internalType": "address",
          "name": "owner",
          "type": "address"
        },
        {
          "internalType": "address",
          "name": "spender",
          "type": "address"
        }
      ],
      "name": "allowance",
      "outputs": [
        {
          "internalType": "uint256",
          "name": "",
          "type": "uint256"
        }
      ],
      "stateMutability": "view",
      "type": "function",
      "constant": true
    },
    {
      "inputs": [
        {
          "internalType": "address",
          "name": "spender",
          "type": "address"
        },
        {
          "internalType": "uint256",
          "name": "amount",
          "type": "uint256"
        }
      ],
      "name": "approve",
      "outputs": [
        {
          "internalType": "bool",
          "name": "",
          "type": "bool"
        }
      ],
      "stateMutability": "nonpayable",
      "type": "function"
    },
    {
      "inputs": [
        {
          "internalType": "address",
          "name": "sender",
          "type": "address"
        },
        {
          "internalType": "address",
          "name": "recipient",
          "type": "address"
        },
        {
          "internalType": "uint256",
          "name": "amount",
          "type": "uint256"
        }
      ],
      "name": "transferFrom",
      "outputs": [
        {
          "internalType": "bool",
          "name": "",
          "type": "bool"
        }
      ],
      "stateMutability": "nonpayable",
      "type": "function"
    },
    {
      "inputs": [
        {
          "internalType": "address",
          "name": "spender",
          "type": "address"
        },
        {
          "internalType": "uint256",
          "name": "addedValue",
          "type": "uint256"
        }
      ],
      "name": "increaseAllowance",
      "outputs": [
        {
          "internalType": "bool",
          "name": "",
          "type": "bool"
        }
      ],
      "stateMutability": "nonpayable",
      "type": "function"
    },
    {
      "inputs": [
        {
          "internalType": "address",
          "name": "spender",
          "type": "address"
        },
        {
          "internalType": "uint256",
          "name": "subtractedValue",
          "type": "uint256"
        }
      ],
      "name": "decreaseAllowance",
      "outputs": [
        {
          "internalType": "bool",
          "name": "",
          "type": "bool"
        }
      ],
      "stateMutability": "nonpayable",
      "type": "function"
    },
    {
      "inputs": [
        {
          "internalType": "address",
          "name": "account",
          "type": "address"
        }
      ],
      "name": "isExcluded",
      "outputs": [
        {
          "internalType": "bool",
          "name": "",
          "type": "bool"
        }
      ],
      "stateMutability": "view",
      "type": "function",
      "constant": true
    },
    {
      "inputs": [
        {
          "internalType": "uint256",
          "name": "tokenAmount",
          "type": "uint256"
        }
      ],
      "name": "reflectionFromToken",
      "outputs": [
        {
          "internalType": "uint256",
          "name": "",
          "type": "uint256"
        }
      ],
      "stateMutability": "view",
      "type": "function",
      "constant": true
    },
    {
      "inputs": [
        {
          "internalType": "uint256",
          "name": "reflectionAmount",
          "type": "uint256"
        }
      ],
      "name": "tokenFromReflection",
      "outputs": [
        {
          "internalType": "uint256",
          "name": "",
          "type": "uint256"
        }
      ],
      "stateMutability": "view",
      "type": "function",
      "constant": true
    },
    {
      "inputs": [
        {
          "internalType": "address",
          "name": "account",
          "type": "address"
        }
      ],
      "name": "excludeAccount",
      "outputs": [],
      "stateMutability": "nonpayable",
      "type": "function"
    },
    {
      "inputs": [
        {
          "internalType": "address",
          "name": "account",
          "type": "address"
        }
      ],
      "name": "includeAccount",
      "outputs": [],
      "stateMutability": "nonpayable",
      "type": "function"
    },
    {
      "inputs": [
        {
          "internalType": "uint256",
          "name": "amount",
          "type": "uint256"
        }
      ],
      "name": "deliver",
      "outputs": [],
      "stateMutability": "nonpayable",
      "type": "function"
    },
    {
      "inputs": [
        {
          "internalType": "address",
          "name": "account",
          "type": "address"
        },
        {
          "internalType": "bool",
          "name": "value",
          "type": "bool"
        }
      ],
      "name": "setTaxless",
      "outputs": [],
      "stateMutability": "nonpayable",
      "type": "function"
    },
    {
      "inputs": [
        {
          "internalType": "address",
          "name": "account",
          "type": "address"
        },
        {
          "internalType": "bool",
          "name": "value",
          "type": "bool"
        }
      ],
      "name": "setBlacklist",
      "outputs": [],
      "stateMutability": "nonpayable",
      "type": "function"
    },
    {
      "inputs": [
        {
          "internalType": "bool",
          "name": "enabled",
          "type": "bool"
        }
      ],
      "name": "setSwapAndLiquifyEnabled",
      "outputs": [],
      "stateMutability": "nonpayable",
      "type": "function"
    },
    {
      "inputs": [
        {
          "internalType": "bool",
          "name": "value",
          "type": "bool"
        }
      ],
      "name": "setFeeActive",
      "outputs": [],
      "stateMutability": "nonpayable",
      "type": "function"
    },
    {
      "inputs": [
        {
          "internalType": "uint256",
          "name": "fee",
          "type": "uint256"
        }
      ],
      "name": "setRedistributionFee",
      "outputs": [],
      "stateMutability": "nonpayable",
      "type": "function"
    },
    {
      "inputs": [
        {
          "internalType": "uint256",
          "name": "fee",
          "type": "uint256"
        }
      ],
      "name": "setLiquidityFee",
      "outputs": [],
      "stateMutability": "nonpayable",
      "type": "function"
    },
    {
      "inputs": [
        {
          "internalType": "uint256",
          "name": "fee",
          "type": "uint256"
        }
      ],
      "name": "setLotteryPoolFee",
      "outputs": [],
      "stateMutability": "nonpayable",
      "type": "function"
    },
    {
      "inputs": [
        {
          "internalType": "uint256",
          "name": "fee",
          "type": "uint256"
        }
      ],
      "name": "setNFTPoolFee",
      "outputs": [],
      "stateMutability": "nonpayable",
      "type": "function"
    },
    {
      "inputs": [
        {
          "internalType": "uint256",
          "name": "fee",
          "type": "uint256"
        }
      ],
      "name": "setBurnFee",
      "outputs": [],
      "stateMutability": "nonpayable",
      "type": "function"
    },
    {
      "inputs": [
        {
          "internalType": "address",
          "name": "wallet",
          "type": "address"
        }
      ],
      "name": "setTeamWallet",
      "outputs": [],
      "stateMutability": "nonpayable",
      "type": "function"
    },
    {
      "inputs": [
        {
          "internalType": "address",
          "name": "wallet",
          "type": "address"
        }
      ],
      "name": "setDistributionWallet",
      "outputs": [],
      "stateMutability": "nonpayable",
      "type": "function"
    },
    {
      "inputs": [
        {
          "internalType": "address",
          "name": "wallet",
          "type": "address"
        }
      ],
      "name": "setNFTPoolWallet",
      "outputs": [],
      "stateMutability": "nonpayable",
      "type": "function"
    },
    {
      "inputs": [
        {
          "internalType": "address",
          "name": "wallet",
          "type": "address"
        }
      ],
      "name": "setLotteryPoolWallet",
      "outputs": [],
      "stateMutability": "nonpayable",
      "type": "function"
    },
    {
      "inputs": [
        {
          "internalType": "uint256",
          "name": "_maxAmountTxPercentage",
          "type": "uint256"
        }
      ],
      "name": "setMaxTxAmountPercentage",
      "outputs": [],
      "stateMutability": "nonpayable",
      "type": "function"
    },
    {
      "inputs": [
        {
          "internalType": "address",
          "name": "account",
          "type": "address"
        }
      ],
      "name": "setAdmin",
      "outputs": [],
      "stateMutability": "nonpayable",
      "type": "function"
    },
    {
      "inputs": [
        {
          "internalType": "uint256",
          "name": "amount",
          "type": "uint256"
        }
      ],
      "name": "setMinTokensBeforeSwap",
      "outputs": [],
      "stateMutability": "nonpayable",
      "type": "function"
    },
    {
      "inputs": [
        {
          "internalType": "bool",
          "name": "value",
          "type": "bool"
        }
      ],
      "name": "setSellCooldonwEnabled",
      "outputs": [],
      "stateMutability": "nonpayable",
      "type": "function"
    },
    {
      "inputs": [
        {
          "internalType": "uint256",
          "name": "interval",
          "type": "uint256"
        },
        {
          "internalType": "uint256",
          "name": "amount",
          "type": "uint256"
        }
      ],
      "name": "setSellCooldown",
      "outputs": [],
      "stateMutability": "nonpayable",
      "type": "function"
    },
    {
      "inputs": [],
      "name": "launch",
      "outputs": [],
      "stateMutability": "nonpayable",
      "type": "function"
    },
    {
      "inputs": [
        {
          "internalType": "address",
          "name": "tokenAddress",
          "type": "address"
        },
        {
          "internalType": "uint256",
          "name": "tokenAmount",
          "type": "uint256"
        }
      ],
      "name": "recoverERC20",
      "outputs": [],
      "stateMutability": "nonpayable",
      "type": "function"
    },
    {
      "inputs": [
        {
          "internalType": "address payable",
          "name": "destination",
          "type": "address"
        }
      ],
      "name": "claim",
      "outputs": [],
      "stateMutability": "nonpayable",
      "type": "function"
    }
  ],
  "bytecode": "0x60c0604052600a6080819052694c75636b79426c6f636b60b01b60a09081526200002d9160019190620005ca565b50604080518082019091526006808252654c426c6f636b60d01b60209092019182526200005d91600291620005ca565b506003805460ff1916600917905568056bc75e2d6310000060078190556200008890600019620007c7565b620000969060001962000770565b6008556002600d556000600e819055610190600f81905560105561012c6011556064601255601355601680546001600160a01b031990811673e605c32f883eaae4b5777989a673430ecc87c41e1790915560178054821673dcb9780e81abdb5598350d70acda89ce7baafc9e179055601880548216731c68dfb90d6f2acb05b7b34df191e9c6b38e9cb11790556019805490911661dead179055601a805460ff60b01b1960ff60a81b19909116600160a81b1716600160b01b1790556101f4601b819055600754620001949161271091620001809162001e4d620004be602090811b91909117901c565b620004d360201b62001e591790919060201c565b601c5564174876e800601d55601e8054600160ff19909116179055610258602355600754620001da906127109062000180906005620004be602090811b62001e4d17901c565b602455348015620001ea57600080fd5b50604051620043a6380380620043a68339810160408190526200020d9162000670565b620002216200021b620004e1565b620004e5565b6000819050806001600160a01b031663c45a01556040518163ffffffff1660e01b815260040160206040518083038186803b1580156200026057600080fd5b505afa15801562000275573d6000803e3d6000fd5b505050506040513d601f19601f820116820180604052508101906200029b919062000670565b6001600160a01b031663c9c6539630836001600160a01b031663ad5c46486040518163ffffffff1660e01b815260040160206040518083038186803b158015620002e457600080fd5b505afa158015620002f9573d6000803e3d6000fd5b505050506040513d601f19601f820116820180604052508101906200031f919062000670565b6040518363ffffffff1660e01b81526004016200033e92919062000699565b602060405180830381600087803b1580156200035957600080fd5b505af11580156200036e573d6000803e3d6000fd5b505050506040513d601f19601f8201168201806040525081019062000394919062000670565b602680546001600160a01b03199081166001600160a01b039384161782556025805482168585161790556015805433908316811782556000818152600a60209081526040808320805460ff1990811660019081179092559554891684528184208054871682179055875489168452600b8352818420805490961681179095559554600c805495860190557fdf6966c971051c3d54ec59162606531493a51404a002842f56009d7e5cf4a8c790940180549490971693909416929092179094556008548482526004835283822055600754600590925282812082905591518392917fddf252ad1be2c89b69c2b068fc378daa952ba7f163c4a11628f55a4df523b3ef91620004a291906200072e565b60405180910390a3620004b58162000535565b5050506200080a565b6000620004cc82846200074e565b9392505050565b6000620004cc828462000737565b3390565b600080546001600160a01b038381166001600160a01b0319831681178455604051919092169283917f8be0079c531659141344cd1fd0a4f28419497f9722a3daafe3b4186f6b6457e09190a35050565b6200053f620004e1565b6001600160a01b031662000552620005bb565b6001600160a01b031614620005845760405162461bcd60e51b81526004016200057b90620006f9565b60405180910390fd5b6001600160a01b038116620005ad5760405162461bcd60e51b81526004016200057b90620006b3565b620005b881620004e5565b50565b6000546001600160a01b031690565b828054620005d8906200078a565b90600052602060002090601f016020900481019282620005fc576000855562000647565b82601f106200061757805160ff191683800117855562000647565b8280016001018555821562000647579182015b82811115620006475782518255916020019190600101906200062a565b506200065592915062000659565b5090565b5b808211156200065557600081556001016200065a565b60006020828403121562000682578081fd5b81516001600160a01b0381168114620004cc578182fd5b6001600160a01b0392831681529116602082015260400190565b60208082526026908201527f4f776e61626c653a206e6577206f776e657220697320746865207a65726f206160408201526564647265737360d01b606082015260800190565b6020808252818101527f4f776e61626c653a2063616c6c6572206973206e6f7420746865206f776e6572604082015260600190565b90815260200190565b600082620007495762000749620007f4565b500490565b60008160001904831182151516156200076b576200076b620007de565b500290565b600082821015620007855762000785620007de565b500390565b6002810460018216806200079f57607f821691505b60208210811415620007c157634e487b7160e01b600052602260045260246000fd5b50919050565b600082620007d957620007d9620007f4565b500690565b634e487b7160e01b600052601160045260246000fd5b634e487b7160e01b600052601260045260246000fd5b613b8c806200081a6000396000f3fe6080604052600436106104335760003560e01c80637e11b31f11610228578063cba0e99611610128578063e63c2fc0116100bb578063f2fde38b1161008a578063f851a4401161006f578063f851a44014610b77578063fce589d814610b8c578063ff84131014610ba15761043a565b8063f2fde38b14610b37578063f84354f114610b575761043a565b8063e63c2fc014610acd578063eb5148d814610ae2578063f24fe7fe14610b02578063f2cc0c1814610b175761043a565b8063e2f62bf5116100f7578063e2f62bf514610a6e578063e43504da14610a8e578063e5d41c6b14610aa3578063e5dffed314610ab85761043a565b8063cba0e996146109f9578063d3459d0b14610a19578063d3a7e8a414610a2e578063dd62ed3e14610a4e5761043a565b8063a15224ff116101bb578063b27fc7321161018a578063b61a95391161016f578063b61a9539146109a4578063b7bfff65146109b9578063c49b9a80146109d95761043a565b8063b27fc7321461096f578063b32d41761461098f5761043a565b8063a15224ff146108ef578063a36517961461090f578063a457c2d71461092f578063a9059cbb1461094f5761043a565b80639293d854116101f75780639293d8541461089b57806395d89b41146108b057806398118cb4146108c5578063a071dcf4146108da5761043a565b80637e11b31f1461083c5780638980f11f146108515780638c0b5e22146108715780638da5cb5b146108865761043a565b80633631c8cb116103335780634a74bb02116102c6578063704b6c021161029557806370a082311161027a57806370a08231146107e7578063715018a61461080757806371d40dae1461081c5761043a565b8063704b6c02146107a7578063707f4ead146107c75761043a565b80634a74bb021461073d5780634bf2c7c914610752578063599270441461077257806363341512146107875761043a565b80633bd5d173116103025780633bd5d173146106c8578063467d0119146106e857806347f2dc5b146106fd57806348a464731461071d5761043a565b80633631c8cb1461065e578063372060c31461067357806337bfc1ef1461069357806339509351146106a85761043a565b806319ecb166116103c65780632d83811911610395578063313ce5671161037a578063313ce567146105fc57806334f9e92d1461061e578063357bf15c1461063e5761043a565b80632d838119146105ba578063312e6941146105da5761043a565b806319ecb166146105455780631e6ee830146105655780631e83409a1461057a57806323b872dd1461059a5761043a565b80631392c086116104025780631392c086146104d05780631525ff7d146104f0578063153b0d1e1461051057806318160ddd146105305761043a565b806301339c211461043f57806306fdde0314610456578063095ea7b3146104815780630adeb017146104ae5761043a565b3661043a57005b600080fd5b34801561044b57600080fd5b50610454610bb6565b005b34801561046257600080fd5b5061046b610c24565b6040516104789190613269565b60405180910390f35b34801561048d57600080fd5b506104a161049c36600461312d565b610cb7565b604051610478919061325e565b3480156104ba57600080fd5b506104c3610cd4565b604051610478919061385b565b3480156104dc57600080fd5b506104c36104eb366004613190565b610cda565b3480156104fc57600080fd5b5061045461050b366004613050565b610d18565b34801561051c57600080fd5b5061045461052b366004613100565b610d79565b34801561053c57600080fd5b506104c3610e08565b34801561055157600080fd5b50610454610560366004613050565b610e0e565b34801561057157600080fd5b506104c3610e6f565b34801561058657600080fd5b50610454610595366004613050565b610e75565b3480156105a657600080fd5b506104a16105b53660046130c0565b610eed565b3480156105c657600080fd5b506104c36105d5366004613190565b610f75565b3480156105e657600080fd5b506105ef610fab565b60405161047891906131f6565b34801561060857600080fd5b50610611610fba565b60405161047891906138ea565b34801561062a57600080fd5b506104c3610639366004613050565b610fc3565b34801561064a57600080fd5b50610454610659366004613190565b610fd5565b34801561066a57600080fd5b506104c361103e565b34801561067f57600080fd5b5061045461068e366004613050565b611044565b34801561069f57600080fd5b506104c36110a5565b3480156106b457600080fd5b506104a16106c336600461312d565b6110ab565b3480156106d457600080fd5b506104546106e3366004613190565b6110f9565b3480156106f457600080fd5b506105ef6111e1565b34801561070957600080fd5b50610454610718366004613100565b6111f0565b34801561072957600080fd5b50610454610738366004613190565b61127f565b34801561074957600080fd5b506104a16112e8565b34801561075e57600080fd5b5061045461076d366004613190565b6112f8565b34801561077e57600080fd5b506105ef61133c565b34801561079357600080fd5b506104546107a2366004613050565b61134b565b3480156107b357600080fd5b506104546107c2366004613050565b6113ac565b3480156107d357600080fd5b506104546107e2366004613158565b61140d565b3480156107f357600080fd5b506104c3610802366004613050565b611484565b34801561081357600080fd5b506104546114e6565b34801561082857600080fd5b506104c3610837366004613050565b611531565b34801561084857600080fd5b506104c3611543565b34801561085d57600080fd5b5061045461086c36600461312d565b611549565b34801561087d57600080fd5b506104c3611614565b34801561089257600080fd5b506105ef61161a565b3480156108a757600080fd5b506104c3611629565b3480156108bc57600080fd5b5061046b61162f565b3480156108d157600080fd5b506104c361163e565b3480156108e657600080fd5b506104c3611644565b3480156108fb57600080fd5b5061045461090a366004613190565b61164a565b34801561091b57600080fd5b5061045461092a3660046131a8565b6116b3565b34801561093b57600080fd5b506104a161094a36600461312d565b611722565b34801561095b57600080fd5b506104a161096a36600461312d565b61178a565b34801561097b57600080fd5b506104c361098a366004613050565b61179e565b34801561099b57600080fd5b506104c36117af565b3480156109b057600080fd5b506105ef6117b5565b3480156109c557600080fd5b506104546109d4366004613158565b6117c4565b3480156109e557600080fd5b506104546109f4366004613158565b611861565b348015610a0557600080fd5b506104a1610a14366004613050565b611932565b348015610a2557600080fd5b506104c3611950565b348015610a3a57600080fd5b50610454610a49366004613190565b611956565b348015610a5a57600080fd5b506104c3610a69366004613088565b61199a565b348015610a7a57600080fd5b50610454610a89366004613190565b6119c5565b348015610a9a57600080fd5b506104a1611a09565b348015610aaf57600080fd5b506104c3611a19565b348015610ac457600080fd5b506105ef611a1f565b348015610ad957600080fd5b506104a1611a2e565b348015610aee57600080fd5b50610454610afd366004613190565b611a37565b348015610b0e57600080fd5b506104c3611a7b565b348015610b2357600080fd5b50610454610b32366004613050565b611a81565b348015610b4357600080fd5b50610454610b52366004613050565b611be7565b348015610b6357600080fd5b50610454610b72366004613050565b611c58565b348015610b8357600080fd5b506105ef611e29565b348015610b9857600080fd5b506104c3611e38565b348015610bad57600080fd5b506105ef611e3e565b610bbe611e65565b6001600160a01b0316610bcf61161a565b6001600160a01b031614610bfe5760405162461bcd60e51b8152600401610bf590613668565b60405180910390fd5b601f5415610c1e5760405162461bcd60e51b8152600401610bf590613774565b42601f55565b606060018054610c3390613a7a565b80601f0160208091040260200160405190810160405280929190818152602001828054610c5f90613a7a565b8015610cac5780601f10610c8157610100808354040283529160200191610cac565b820191906000526020600020905b815481529060010190602001808311610c8f57829003601f168201915b505050505090505b90565b6000610ccb610cc4611e65565b8484611e69565b50600192915050565b601b5481565b6000600754821115610cfe5760405162461bcd60e51b8152600401610bf5906135d4565b610d10610d09611f1d565b8390611e4d565b90505b919050565b610d20611e65565b6001600160a01b0316610d3161161a565b6001600160a01b031614610d575760405162461bcd60e51b8152600401610bf590613668565b601580546001600160a01b0319166001600160a01b0392909216919091179055565b610d81611e65565b6001600160a01b0316610d9261161a565b6001600160a01b03161480610dc15750601a546001600160a01b0316610db6611e65565b6001600160a01b0316145b610ddd5760405162461bcd60e51b8152600401610bf59061360b565b6001600160a01b03919091166000908152600960205260409020805460ff1916911515919091179055565b60075490565b610e16611e65565b6001600160a01b0316610e2761161a565b6001600160a01b031614610e4d5760405162461bcd60e51b8152600401610bf590613668565b601680546001600160a01b0319166001600160a01b0392909216919091179055565b60135481565b610e7d611e65565b6001600160a01b0316610e8e61161a565b6001600160a01b031614610eb45760405162461bcd60e51b8152600401610bf590613668565b6040516001600160a01b038216904780156108fc02916000818181858888f19350505050158015610ee9573d6000803e3d6000fd5b5050565b6000610efa8484846120ee565b610f6a84610f06611e65565b610f6585604051806060016040528060288152602001613b0a602891396001600160a01b038a16600090815260066020526040812090610f44611e65565b6001600160a01b031681526020810191909152604001600020549190612724565b611e69565b5060015b9392505050565b6000600854821115610f995760405162461bcd60e51b8152600401610bf5906133f1565b610d10610fa4611f1d565b8390611e59565b6017546001600160a01b031681565b60035460ff1690565b60216020526000908152604090205481565b610fdd611e65565b6001600160a01b0316610fee61161a565b6001600160a01b0316148061101d5750601a546001600160a01b0316611012611e65565b6001600160a01b0316145b6110395760405162461bcd60e51b8152600401610bf59061360b565b600f55565b60245481565b61104c611e65565b6001600160a01b031661105d61161a565b6001600160a01b0316146110835760405162461bcd60e51b8152600401610bf590613668565b601880546001600160a01b0319166001600160a01b0392909216919091179055565b60145481565b6000610ccb6110b8611e65565b84610f6585600660006110c9611e65565b6001600160a01b03908116825260208083019390935260409182016000908120918c168152925290205490612750565b336000908152600b602052604090205460ff16156111295760405162461bcd60e51b8152600401610bf590613524565b6000611133611f1d565b90506111586111428383611e4d565b336000908152600460205260409020549061275c565b3360009081526004602052604090205561117e6111758383611e4d565b6008549061275c565b60085560145461118e9083612750565b60145560135461119e9083612750565b601355604051309033907fddf252ad1be2c89b69c2b068fc378daa952ba7f163c4a11628f55a4df523b3ef906111d590869061385b565b60405180910390a35050565b6016546001600160a01b031681565b6111f8611e65565b6001600160a01b031661120961161a565b6001600160a01b031614806112385750601a546001600160a01b031661122d611e65565b6001600160a01b0316145b6112545760405162461bcd60e51b8152600401610bf59061360b565b6001600160a01b03919091166000908152600a60205260409020805460ff1916911515919091179055565b611287611e65565b6001600160a01b031661129861161a565b6001600160a01b031614806112c75750601a546001600160a01b03166112bc611e65565b6001600160a01b0316145b6112e35760405162461bcd60e51b8152600401610bf59061360b565b601d55565b601a54600160a81b900460ff1681565b611300611e65565b6001600160a01b031661131161161a565b6001600160a01b0316146113375760405162461bcd60e51b8152600401610bf590613668565b601255565b6015546001600160a01b031681565b611353611e65565b6001600160a01b031661136461161a565b6001600160a01b03161461138a5760405162461bcd60e51b8152600401610bf590613668565b601780546001600160a01b0319166001600160a01b0392909216919091179055565b6113b4611e65565b6001600160a01b03166113c561161a565b6001600160a01b0316146113eb5760405162461bcd60e51b8152600401610bf590613668565b601a80546001600160a01b0319166001600160a01b0392909216919091179055565b611415611e65565b6001600160a01b031661142661161a565b6001600160a01b031614806114555750601a546001600160a01b031661144a611e65565b6001600160a01b0316145b6114715760405162461bcd60e51b8152600401610bf59061360b565b601e805460ff1916911515919091179055565b6001600160a01b0381166000908152600b602052604081205460ff16156114c457506001600160a01b038116600090815260056020526040902054610d13565b6001600160a01b038216600090815260046020526040902054610d1090610f75565b6114ee611e65565b6001600160a01b03166114ff61161a565b6001600160a01b0316146115255760405162461bcd60e51b8152600401610bf590613668565b61152f6000612768565b565b60226020526000908152604090205481565b600d5481565b611551611e65565b6001600160a01b031661156261161a565b6001600160a01b0316146115885760405162461bcd60e51b8152600401610bf590613668565b816001600160a01b031663a9059cbb61159f61161a565b836040518363ffffffff1660e01b81526004016115bd92919061320a565b602060405180830381600087803b1580156115d757600080fd5b505af11580156115eb573d6000803e3d6000fd5b505050506040513d601f19601f8201168201806040525081019061160f9190613174565b505050565b601c5481565b6000546001600160a01b031690565b60115481565b606060028054610c3390613a7a565b600f5481565b600e5481565b611652611e65565b6001600160a01b031661166361161a565b6001600160a01b031614806116925750601a546001600160a01b0316611687611e65565b6001600160a01b0316145b6116ae5760405162461bcd60e51b8152600401610bf59061360b565b600e55565b6116bb611e65565b6001600160a01b03166116cc61161a565b6001600160a01b031614806116fb5750601a546001600160a01b03166116f0611e65565b6001600160a01b0316145b6117175760405162461bcd60e51b8152600401610bf59061360b565b602391909155602455565b6000610ccb61172f611e65565b84610f6585604051806060016040528060258152602001613b326025913960066000611759611e65565b6001600160a01b03908116825260208083019390935260409182016000908120918d16815292529020549190612724565b6000610ccb611797611e65565b84846120ee565b602080526000908152604090205481565b601f5481565b6026546001600160a01b031681565b6117cc611e65565b6001600160a01b03166117dd61161a565b6001600160a01b0316148061180c5750601a546001600160a01b0316611801611e65565b6001600160a01b0316145b6118285760405162461bcd60e51b8152600401610bf59061360b565b601a8054911515600160b01b027fffffffffffffffffff00ffffffffffffffffffffffffffffffffffffffffffff909216919091179055565b611869611e65565b6001600160a01b031661187a61161a565b6001600160a01b031614806118a95750601a546001600160a01b031661189e611e65565b6001600160a01b0316145b6118c55760405162461bcd60e51b8152600401610bf59061360b565b601a80547fffffffffffffffffffff00ffffffffffffffffffffffffffffffffffffffffff16600160a81b831515021790556040517f53726dfcaf90650aa7eb35524f4d3220f07413c8d6cb404cc8c18bf5591bc1599061192790839061325e565b60405180910390a150565b6001600160a01b03166000908152600b602052604090205460ff1690565b60235481565b61195e611e65565b6001600160a01b031661196f61161a565b6001600160a01b0316146119955760405162461bcd60e51b8152600401610bf590613668565b601155565b6001600160a01b03918216600090815260066020908152604080832093909416825291909152205490565b6119cd611e65565b6001600160a01b03166119de61161a565b6001600160a01b031614611a045760405162461bcd60e51b8152600401610bf590613668565b601b55565b601a54600160b01b900460ff1681565b601d5481565b6025546001600160a01b031681565b601e5460ff1681565b611a3f611e65565b6001600160a01b0316611a5061161a565b6001600160a01b031614611a765760405162461bcd60e51b8152600401610bf590613668565b601055565b60105481565b611a89611e65565b6001600160a01b0316611a9a61161a565b6001600160a01b031614611ac05760405162461bcd60e51b8152600401610bf590613668565b6025546001600160a01b0382811691161415611aee5760405162461bcd60e51b8152600401610bf590613350565b6001600160a01b0381166000908152600b602052604090205460ff1615611b275760405162461bcd60e51b8152600401610bf59061355b565b6001600160a01b03811660009081526004602052604090205415611b81576001600160a01b038116600090815260046020526040902054611b6790610f75565b6001600160a01b0382166000908152600560205260409020555b6001600160a01b03166000818152600b60205260408120805460ff19166001908117909155600c805491820181559091527fdf6966c971051c3d54ec59162606531493a51404a002842f56009d7e5cf4a8c70180546001600160a01b0319169091179055565b611bef611e65565b6001600160a01b0316611c0061161a565b6001600160a01b031614611c265760405162461bcd60e51b8152600401610bf590613668565b6001600160a01b038116611c4c5760405162461bcd60e51b8152600401610bf59061344e565b611c5581612768565b50565b611c60611e65565b6001600160a01b0316611c7161161a565b6001600160a01b031614611c975760405162461bcd60e51b8152600401610bf590613668565b6001600160a01b0381166000908152600b602052604090205460ff16611ccf5760405162461bcd60e51b8152600401610bf5906134ab565b60005b600c54811015610ee957816001600160a01b0316600c8281548110611d0757634e487b7160e01b600052603260045260246000fd5b6000918252602090912001546001600160a01b03161415611e1757600c8054611d3290600190613a63565b81548110611d5057634e487b7160e01b600052603260045260246000fd5b600091825260209091200154600c80546001600160a01b039092169183908110611d8a57634e487b7160e01b600052603260045260246000fd5b600091825260208083209190910180546001600160a01b0319166001600160a01b039485161790559184168152600582526040808220829055600b90925220805460ff19169055600c805480611df057634e487b7160e01b600052603160045260246000fd5b600082815260209020810160001990810180546001600160a01b0319169055019055610ee9565b80611e2181613ab5565b915050611cd2565b601a546001600160a01b031681565b60125481565b6018546001600160a01b031681565b6000610f6e8284613a44565b6000610f6e8284613910565b3390565b6001600160a01b038316611e8f5760405162461bcd60e51b8152600401610bf5906133ad565b6001600160a01b038216611eb55760405162461bcd60e51b8152600401610bf590613819565b6001600160a01b0380841660008181526006602090815260408083209487168084529490915290819020849055517f8c5be1e5ebec7d5bd14f71427d1e84f3dd0314c0f7b2291e5b200ac8c7c3b92590611f1090859061385b565b60405180910390a3505050565b60085460075460009190825b600c548110156120ae578260046000600c8481548110611f5957634e487b7160e01b600052603260045260246000fd5b60009182526020808320909101546001600160a01b031683528201929092526040019020541180611fd257508160056000600c8481548110611fab57634e487b7160e01b600052603260045260246000fd5b60009182526020808320909101546001600160a01b03168352820192909252604001902054115b15611ff057600754600854611fe691611e59565b9350505050610cb4565b61204460046000600c848154811061201857634e487b7160e01b600052603260045260246000fd5b60009182526020808320909101546001600160a01b03168352820192909252604001902054849061275c565b925061209a60056000600c848154811061206e57634e487b7160e01b600052603260045260246000fd5b60009182526020808320909101546001600160a01b03168352820192909252604001902054839061275c565b9150806120a681613ab5565b915050611f29565b506007546008546120be91611e59565b8210156120dd576007546008546120d491611e59565b92505050610cb4565b6120e78282611e59565b9250505090565b6001600160a01b0383166121145760405162461bcd60e51b8152600401610bf5906132f3565b6001600160a01b03821661213a5760405162461bcd60e51b8152600401610bf5906136fa565b6000811161215a5760405162461bcd60e51b8152600401610bf59061369d565b6001600160a01b0383166000908152600a602052604090205460ff168061219957506001600160a01b0382166000908152600a602052604090205460ff165b806121a65750601c548111155b6121c25760405162461bcd60e51b8152600401610bf5906137ab565b6001600160a01b03831660009081526009602052604090205460ff16156121fb5760405162461bcd60e51b8152600401610bf5906137e2565b601f5415158061222357506001600160a01b0383166000908152600a602052604090205460ff165b8061224657506001600160a01b0382166000908152600a602052604090205460ff165b6122625760405162461bcd60e51b8152600401610bf5906134ed565b6001600160a01b0383166000908152600a602052604090205460ff161580156122a457506001600160a01b0382166000908152600a602052604090205460ff16155b80156122be575042601f5460b46122bb91906138f8565b10155b1561235f576026546001600160a01b03848116911614158061230057506007546122ea90612710611e59565b6122fd826122f785611484565b90612750565b11155b61231c5760405162461bcd60e51b8152600401610bf5906132bc565b42601f5460b461232c91906138f8565b1061235f576026546001600160a01b038381169116141561235f5760405162461bcd60e51b8152600401610bf59061373d565b601e5460ff16801561237e57506026546001600160a01b038381169116145b80156123a357506001600160a01b0383166000908152600a602052604090205460ff16155b1561249c576001600160a01b03831660009081526022602052604090205442116123df5760405162461bcd60e51b8152600401610bf59061359d565b6023546001600160a01b0384166000908152602160205260409020544291612406916138f8565b1015612431576001600160a01b03831660009081526021602090815260408083204290559080528120555b6001600160a01b03831660009081526020805260409020546124539082612750565b6001600160a01b038416600090815260208052604090208190556024541161249c5760235461248290426138f8565b6001600160a01b0384166000908152602260205260409020555b8060006124a7611f1d565b905060006124b430611484565b601a54909150600160a81b900460ff1680156124da5750601a54600160a01b900460ff16155b80156124f457506026546001600160a01b03878116911614155b80156125025750601d548110155b1561251057612510816127b8565b601a54600160b01b900460ff16801561254257506001600160a01b0386166000908152600a602052604090205460ff16155b801561256757506001600160a01b0385166000908152600a602052604090205460ff16155b801561257d5750601a54600160a01b900460ff16155b156125915761258e86868685612868565b92505b6125bd61259e8584611e4d565b6001600160a01b0388166000908152600460205260409020549061275c565b6001600160a01b0387166000908152600460205260409020556126026125e38484611e4d565b6001600160a01b03871660009081526004602052604090205490612750565b6001600160a01b038087166000908152600460209081526040808320949094559189168152600b909152205460ff1615612673576001600160a01b038616600090815260056020526040902054612659908561275c565b6001600160a01b0387166000908152600560205260409020555b6001600160a01b0385166000908152600b602052604090205460ff16156126d1576001600160a01b0385166000908152600560205260409020546126b79084612750565b6001600160a01b0386166000908152600560205260409020555b846001600160a01b0316866001600160a01b03167fddf252ad1be2c89b69c2b068fc378daa952ba7f163c4a11628f55a4df523b3ef85604051612714919061385b565b60405180910390a3505050505050565b600081848411156127485760405162461bcd60e51b8152600401610bf59190613269565b505050900390565b6000610f6e82846138f8565b6000610f6e8284613a63565b600080546001600160a01b038381166001600160a01b0319831681178455604051919092169283917f8be0079c531659141344cd1fd0a4f28419497f9722a3daafe3b4186f6b6457e09190a35050565b601a805460ff60a01b1916600160a01b179055601c548111156127da5750601c545b60006127e7826002611e59565b905060006127f5838361275c565b90504761280183612e1d565b600061280d478361275c565b90506128198382612fa2565b7f17bbfb9a6069321b6ded73bd96327c9e6b7212a5cd51ff219cd61370acafb56184828560405161284c939291906138d4565b60405180910390a15050601a805460ff60a01b19169055505050565b600e5460009083901580159061288b57506016546001600160a01b038681169116145b1561293d5760006128c3600d5460026128a491906138f8565b6128af90600a613976565b600e546128bd908890611e4d565b90611e59565b90506128cf828261275c565b91506128de6111758286611e4d565b6008556013546128ee9082612750565b6013556016546040516001600160a01b03918216918916907fddf252ad1be2c89b69c2b068fc378daa952ba7f163c4a11628f55a4df523b3ef9061293390859061385b565b60405180910390a3505b600f541580159061295b57506026546001600160a01b038681169116145b15612a6457600061298d600d54600261297491906138f8565b61297f90600a613976565b600f546128bd908890611e4d565b9050612999828261275c565b91506129be6129a88286611e4d565b3060009081526004602052604090205490612750565b30600090815260046020908152604080832093909355600b9052205460ff1615612a0d57306000908152600560205260409020546129fc9082612750565b306000908152600560205260409020555b601454612a1a9082612750565b60145560405130906001600160a01b038916907fddf252ad1be2c89b69c2b068fc378daa952ba7f163c4a11628f55a4df523b3ef90612a5a90859061385b565b60405180910390a3505b60105415801590612a8257506026546001600160a01b038681169116145b15612bc7576000612ab4600d546002612a9b91906138f8565b612aa690600a613976565b6010546128bd908890611e4d565b9050612ac0828261275c565b9150612af0612acf8286611e4d565b6018546001600160a01b031660009081526004602052604090205490612750565b601880546001600160a01b0390811660009081526004602090815260408083209590955592549091168152600b909152205460ff1615612b6b576018546001600160a01b0316600090815260056020526040902054612b4f9082612750565b6018546001600160a01b03166000908152600560205260409020555b601454612b789082612750565b6014556018546040516001600160a01b03918216918916907fddf252ad1be2c89b69c2b068fc378daa952ba7f163c4a11628f55a4df523b3ef90612bbd90859061385b565b60405180910390a3505b60115415801590612be557506026546001600160a01b038681169116145b15612d2a576000612c17600d546002612bfe91906138f8565b612c0990600a613976565b6011546128bd908890611e4d565b9050612c23828261275c565b9150612c53612c328286611e4d565b6017546001600160a01b031660009081526004602052604090205490612750565b601780546001600160a01b0390811660009081526004602090815260408083209590955592549091168152600b909152205460ff1615612cce576017546001600160a01b0316600090815260056020526040902054612cb29082612750565b6017546001600160a01b03166000908152600560205260409020555b601454612cdb9082612750565b6014556017546040516001600160a01b03918216918916907fddf252ad1be2c89b69c2b068fc378daa952ba7f163c4a11628f55a4df523b3ef90612d2090859061385b565b60405180910390a3505b60125415801590612d4857506026546001600160a01b038681169116145b15612e14576000612d7a600d546002612d6191906138f8565b612d6c90600a613976565b6012546128bd908890611e4d565b9050612d86828261275c565b6019546001600160a01b0316600090815260056020526040902054909250612dae9082612750565b601980546001600160a01b0390811660009081526005602052604090819020939093559054915191811691908916907fddf252ad1be2c89b69c2b068fc378daa952ba7f163c4a11628f55a4df523b3ef90612e0a90859061385b565b60405180910390a3505b95945050505050565b6040805160028082526060820183526000926020830190803683370190505090503081600081518110612e6057634e487b7160e01b600052603260045260246000fd5b6001600160a01b03928316602091820292909201810191909152602554604080516315ab88c960e31b81529051919093169263ad5c4648926004808301939192829003018186803b158015612eb457600080fd5b505afa158015612ec8573d6000803e3d6000fd5b505050506040513d601f19601f82011682018060405250810190612eec919061306c565b81600181518110612f0d57634e487b7160e01b600052603260045260246000fd5b6001600160a01b039283166020918202929092010152602554612f339130911684611e69565b60255460405163791ac94760e01b81526001600160a01b039091169063791ac94790612f6c908590600090869030904290600401613864565b600060405180830381600087803b158015612f8657600080fd5b505af1158015612f9a573d6000803e3d6000fd5b505050505050565b602554612fba9030906001600160a01b031684611e69565b60255460405163f305d71960e01b81526001600160a01b039091169063f305d719908390612ff79030908790600090819084904290600401613223565b6060604051808303818588803b15801561301057600080fd5b505af1158015613024573d6000803e3d6000fd5b50505050506040513d601f19601f8201168201806040525081019061304991906131c9565b5050505050565b600060208284031215613061578081fd5b8135610f6e81613ae6565b60006020828403121561307d578081fd5b8151610f6e81613ae6565b6000806040838503121561309a578081fd5b82356130a581613ae6565b915060208301356130b581613ae6565b809150509250929050565b6000806000606084860312156130d4578081fd5b83356130df81613ae6565b925060208401356130ef81613ae6565b929592945050506040919091013590565b60008060408385031215613112578182fd5b823561311d81613ae6565b915060208301356130b581613afb565b6000806040838503121561313f578182fd5b823561314a81613ae6565b946020939093013593505050565b600060208284031215613169578081fd5b8135610f6e81613afb565b600060208284031215613185578081fd5b8151610f6e81613afb565b6000602082840312156131a1578081fd5b5035919050565b600080604083850312156131ba578182fd5b50508035926020909101359150565b6000806000606084860312156131dd578283fd5b8351925060208401519150604084015190509250925092565b6001600160a01b0391909116815260200190565b6001600160a01b03929092168252602082015260400190565b6001600160a01b039687168152602081019590955260408501939093526060840191909152909216608082015260a081019190915260c00190565b901515815260200190565b6000602080835283518082850152825b8181101561329557858101830151858201604001528201613279565b818111156132a65783604083870101525b50601f01601f1916929092016040019392505050565b60208082526014908201527f416e7469426f743a204275792042616e6e656421000000000000000000000000604082015260600190565b60208082526025908201527f42455032303a207472616e736665722066726f6d20746865207a65726f20616460408201527f6472657373000000000000000000000000000000000000000000000000000000606082015260800190565b6020808252602c908201527f544f4b454e3a2057652063616e206e6f74206578636c75646520506163616b6560408201527f7377617020726f757465722e0000000000000000000000000000000000000000606082015260800190565b60208082526024908201527f42455032303a20617070726f76652066726f6d20746865207a65726f206164646040820152637265737360e01b606082015260800190565b6020808252602a908201527f416d6f756e74206d757374206265206c657373207468616e20746f74616c207260408201527f65666c656374696f6e7300000000000000000000000000000000000000000000606082015260800190565b60208082526026908201527f4f776e61626c653a206e6577206f776e657220697320746865207a65726f206160408201527f6464726573730000000000000000000000000000000000000000000000000000606082015260800190565b60208082526022908201527f544f4b454e3a204163636f756e7420697320616c726561647920696e636c7564604082015261195960f21b606082015260800190565b6020808252600f908201527f4e6f74204c697374656420796574210000000000000000000000000000000000604082015260600190565b6020808252601a908201527f4578636c756465642063616e6e6f742063616c6c207468697321000000000000604082015260600190565b60208082526022908201527f544f4b454e3a204163636f756e7420697320616c7265616479206578636c7564604082015261195960f21b606082015260800190565b60208082526012908201527f4572723a2053656c6c20436f6f6c646f776e0000000000000000000000000000604082015260600190565b6020808252601f908201527f416d6f756e74206d757374206265206c657373207468616e20737570706c7900604082015260600190565b60208082526029908201527f4f776e61626c653a2063616c6c6572206973206e6f7420746865206f776e657260408201527f206f722061646d696e0000000000000000000000000000000000000000000000606082015260800190565b6020808252818101527f4f776e61626c653a2063616c6c6572206973206e6f7420746865206f776e6572604082015260600190565b60208082526029908201527f5472616e7366657220616d6f756e74206d75737420626520677265617465722060408201527f7468616e207a65726f0000000000000000000000000000000000000000000000606082015260800190565b60208082526023908201527f42455032303a207472616e7366657220746f20746865207a65726f206164647260408201526265737360e81b606082015260800190565b60208082526015908201527f416e7469426f743a2053656c6c2042616e6e6564210000000000000000000000604082015260600190565b6020808252600f908201527f416c7265616479204c6973746564210000000000000000000000000000000000604082015260600190565b6020808252601b908201527f4d6178205472616e73666572204c696d69742045786365656473210000000000604082015260600190565b60208082526007908201527f42616e6e65642100000000000000000000000000000000000000000000000000604082015260600190565b60208082526022908201527f42455032303a20617070726f766520746f20746865207a65726f206164647265604082015261737360f01b606082015260800190565b90815260200190565b600060a082018783526020878185015260a0604085015281875180845260c0860191508289019350845b818110156138b35784516001600160a01b03168352938301939183019160010161388e565b50506001600160a01b03969096166060850152505050608001529392505050565b9283526020830191909152604082015260600190565b60ff91909116815260200190565b6000821982111561390b5761390b613ad0565b500190565b60008261392b57634e487b7160e01b81526012600452602481fd5b500490565b80825b6001808611613942575061396d565b81870482111561395457613954613ad0565b8086161561396157918102915b9490941c938002613933565b94509492505050565b6000610f6e600019848460008261398f57506001610f6e565b8161399c57506000610f6e565b81600181146139b257600281146139bc576139e9565b6001915050610f6e565b60ff8411156139cd576139cd613ad0565b6001841b9150848211156139e3576139e3613ad0565b50610f6e565b5060208310610133831016604e8410600b8410161715613a1c575081810a83811115613a1757613a17613ad0565b610f6e565b613a298484846001613930565b808604821115613a3b57613a3b613ad0565b02949350505050565b6000816000190483118215151615613a5e57613a5e613ad0565b500290565b600082821015613a7557613a75613ad0565b500390565b600281046001821680613a8e57607f821691505b60208210811415613aaf57634e487b7160e01b600052602260045260246000fd5b50919050565b6000600019821415613ac957613ac9613ad0565b5060010190565b634e487b7160e01b600052601160045260246000fd5b6001600160a01b0381168114611c5557600080fd5b8015158114611c5557600080fdfe45524332303a207472616e7366657220616d6f756e74206578636565647320616c6c6f77616e636545524332303a2064656372656173656420616c6c6f77616e63652062656c6f77207a65726fa2646970667358221220894caff238ca9339b64b1f7b3f00ea271bced12a853a931bab0fd5b9ffea284564736f6c63430008000033",
  "immutableReferences": {},
  "source": "// SPDX-License-Identifier: MIT\n// @dev Telegram: @cryptoguyk\n\npragma solidity ^0.8.0;\n\n/**\n * @dev Interface of the ERC20 standard as defined in the EIP.\n */\ninterface IERC20 {\n    /**\n     * @dev Returns the amount of tokens in existence.\n     */\n    function totalSupply() external view returns (uint256);\n\n    /**\n     * @dev Returns the amount of tokens owned by `account`.\n     */\n    function balanceOf(address account) external view returns (uint256);\n\n    /**\n     * @dev Moves `amount` tokens from the caller's account to `recipient`.\n     *\n     * Returns a boolean value indicating whether the operation succeeded.\n     *\n     * Emits a {Transfer} event.\n     */\n    function transfer(address recipient, uint256 amount) external returns (bool);\n\n    /**\n     * @dev Returns the remaining number of tokens that `spender` will be\n     * allowed to spend on behalf of `owner` through {transferFrom}. This is\n     * zero by default.\n     *\n     * This value changes when {approve} or {transferFrom} are called.\n     */\n    function allowance(address owner, address spender) external view returns (uint256);\n\n    /**\n     * @dev Sets `amount` as the allowance of `spender` over the caller's tokens.\n     *\n     * Returns a boolean value indicating whether the operation succeeded.\n     *\n     * IMPORTANT: Beware that changing an allowance with this method brings the risk\n     * that someone may use both the old and the new allowance by unfortunate\n     * transaction ordering. One possible solution to mitigate this race\n     * condition is to first reduce the spender's allowance to 0 and set the\n     * desired value afterwards:\n     * https://github.com/ethereum/EIPs/issues/20#issuecomment-263524729\n     *\n     * Emits an {Approval} event.\n     */\n    function approve(address spender, uint256 amount) external returns (bool);\n\n    /**\n     * @dev Moves `amount` tokens from `sender` to `recipient` using the\n     * allowance mechanism. `amount` is then deducted from the caller's\n     * allowance.\n     *\n     * Returns a boolean value indicating whether the operation succeeded.\n     *\n     * Emits a {Transfer} event.\n     */\n    function transferFrom(\n        address sender,\n        address recipient,\n        uint256 amount\n    ) external returns (bool);\n\n    /**\n     * @dev Emitted when `value` tokens are moved from one account (`from`) to\n     * another (`to`).\n     *\n     * Note that `value` may be zero.\n     */\n    event Transfer(address indexed from, address indexed to, uint256 value);\n\n    /**\n     * @dev Emitted when the allowance of a `spender` for an `owner` is set by\n     * a call to {approve}. `value` is the new allowance.\n     */\n    event Approval(address indexed owner, address indexed spender, uint256 value);\n}\n\n\n/**\n * @dev Provides information about the current execution context, including the\n * sender of the transaction and its data. While these are generally available\n * via msg.sender and msg.data, they should not be accessed in such a direct\n * manner, since when dealing with meta-transactions the account sending and\n * paying for execution may not be the actual sender (as far as an application\n * is concerned).\n *\n * This contract is only required for intermediate, library-like contracts.\n */\nabstract contract Context {\n    function _msgSender() internal view virtual returns (address) {\n        return msg.sender;\n    }\n\n    function _msgData() internal view virtual returns (bytes calldata) {\n        return msg.data;\n    }\n}\n\n/**\n * @dev Contract module which provides a basic access control mechanism, where\n * there is an account (an owner) that can be granted exclusive access to\n * specific functions.\n *\n * By default, the owner account will be the one that deploys the contract. This\n * can later be changed with {transferOwnership}.\n *\n * This module is used through inheritance. It will make available the modifier\n * `onlyOwner`, which can be applied to your functions to restrict their use to\n * the owner.\n */\nabstract contract Ownable is Context {\n    address private _owner;\n\n    event OwnershipTransferred(address indexed previousOwner, address indexed newOwner);\n\n    /**\n     * @dev Initializes the contract setting the deployer as the initial owner.\n     */\n    constructor() {\n        _transferOwnership(_msgSender());\n    }\n\n    /**\n     * @dev Returns the address of the current owner.\n     */\n    function owner() public view virtual returns (address) {\n        return _owner;\n    }\n\n    /**\n     * @dev Throws if called by any account other than the owner.\n     */\n    modifier onlyOwner() {\n        require(owner() == _msgSender(), \"Ownable: caller is not the owner\");\n        _;\n    }\n\n    /**\n     * @dev Leaves the contract without owner. It will not be possible to call\n     * `onlyOwner` functions anymore. Can only be called by the current owner.\n     *\n     * NOTE: Renouncing ownership will leave the contract without an owner,\n     * thereby removing any functionality that is only available to the owner.\n     */\n    function renounceOwnership() public virtual onlyOwner {\n        _transferOwnership(address(0));\n    }\n\n    /**\n     * @dev Transfers ownership of the contract to a new account (`newOwner`).\n     * Can only be called by the current owner.\n     */\n    function transferOwnership(address newOwner) public virtual onlyOwner {\n        require(newOwner != address(0), \"Ownable: new owner is the zero address\");\n        _transferOwnership(newOwner);\n    }\n\n    /**\n     * @dev Transfers ownership of the contract to a new account (`newOwner`).\n     * Internal function without access restriction.\n     */\n    function _transferOwnership(address newOwner) internal virtual {\n        address oldOwner = _owner;\n        _owner = newOwner;\n        emit OwnershipTransferred(oldOwner, newOwner);\n    }\n}\n\n// CAUTION\n// This version of SafeMath should only be used with Solidity 0.8 or later,\n// because it relies on the compiler's built in overflow checks.\n\n/**\n * @dev Wrappers over Solidity's arithmetic operations.\n *\n * NOTE: `SafeMath` is generally not needed starting with Solidity 0.8, since the compiler\n * now has built in overflow checking.\n */\nlibrary SafeMath {\n    /**\n     * @dev Returns the addition of two unsigned integers, with an overflow flag.\n     *\n     * _Available since v3.4._\n     */\n    function tryAdd(uint256 a, uint256 b) internal pure returns (bool, uint256) {\n        unchecked {\n            uint256 c = a + b;\n            if (c < a) return (false, 0);\n            return (true, c);\n        }\n    }\n\n    /**\n     * @dev Returns the substraction of two unsigned integers, with an overflow flag.\n     *\n     * _Available since v3.4._\n     */\n    function trySub(uint256 a, uint256 b) internal pure returns (bool, uint256) {\n        unchecked {\n            if (b > a) return (false, 0);\n            return (true, a - b);\n        }\n    }\n\n    /**\n     * @dev Returns the multiplication of two unsigned integers, with an overflow flag.\n     *\n     * _Available since v3.4._\n     */\n    function tryMul(uint256 a, uint256 b) internal pure returns (bool, uint256) {\n        unchecked {\n            // Gas optimization: this is cheaper than requiring 'a' not being zero, but the\n            // benefit is lost if 'b' is also tested.\n            // See: https://github.com/OpenZeppelin/openzeppelin-contracts/pull/522\n            if (a == 0) return (true, 0);\n            uint256 c = a * b;\n            if (c / a != b) return (false, 0);\n            return (true, c);\n        }\n    }\n\n    /**\n     * @dev Returns the division of two unsigned integers, with a division by zero flag.\n     *\n     * _Available since v3.4._\n     */\n    function tryDiv(uint256 a, uint256 b) internal pure returns (bool, uint256) {\n        unchecked {\n            if (b == 0) return (false, 0);\n            return (true, a / b);\n        }\n    }\n\n    /**\n     * @dev Returns the remainder of dividing two unsigned integers, with a division by zero flag.\n     *\n     * _Available since v3.4._\n     */\n    function tryMod(uint256 a, uint256 b) internal pure returns (bool, uint256) {\n        unchecked {\n            if (b == 0) return (false, 0);\n            return (true, a % b);\n        }\n    }\n\n    /**\n     * @dev Returns the addition of two unsigned integers, reverting on\n     * overflow.\n     *\n     * Counterpart to Solidity's `+` operator.\n     *\n     * Requirements:\n     *\n     * - Addition cannot overflow.\n     */\n    function add(uint256 a, uint256 b) internal pure returns (uint256) {\n        return a + b;\n    }\n\n    /**\n     * @dev Returns the subtraction of two unsigned integers, reverting on\n     * overflow (when the result is negative).\n     *\n     * Counterpart to Solidity's `-` operator.\n     *\n     * Requirements:\n     *\n     * - Subtraction cannot overflow.\n     */\n    function sub(uint256 a, uint256 b) internal pure returns (uint256) {\n        return a - b;\n    }\n\n    /**\n     * @dev Returns the multiplication of two unsigned integers, reverting on\n     * overflow.\n     *\n     * Counterpart to Solidity's `*` operator.\n     *\n     * Requirements:\n     *\n     * - Multiplication cannot overflow.\n     */\n    function mul(uint256 a, uint256 b) internal pure returns (uint256) {\n        return a * b;\n    }\n\n    /**\n     * @dev Returns the integer division of two unsigned integers, reverting on\n     * division by zero. The result is rounded towards zero.\n     *\n     * Counterpart to Solidity's `/` operator.\n     *\n     * Requirements:\n     *\n     * - The divisor cannot be zero.\n     */\n    function div(uint256 a, uint256 b) internal pure returns (uint256) {\n        return a / b;\n    }\n\n    /**\n     * @dev Returns the remainder of dividing two unsigned integers. (unsigned integer modulo),\n     * reverting when dividing by zero.\n     *\n     * Counterpart to Solidity's `%` operator. This function uses a `revert`\n     * opcode (which leaves remaining gas untouched) while Solidity uses an\n     * invalid opcode to revert (consuming all remaining gas).\n     *\n     * Requirements:\n     *\n     * - The divisor cannot be zero.\n     */\n    function mod(uint256 a, uint256 b) internal pure returns (uint256) {\n        return a % b;\n    }\n\n    /**\n     * @dev Returns the subtraction of two unsigned integers, reverting with custom message on\n     * overflow (when the result is negative).\n     *\n     * CAUTION: This function is deprecated because it requires allocating memory for the error\n     * message unnecessarily. For custom revert reasons use {trySub}.\n     *\n     * Counterpart to Solidity's `-` operator.\n     *\n     * Requirements:\n     *\n     * - Subtraction cannot overflow.\n     */\n    function sub(\n        uint256 a,\n        uint256 b,\n        string memory errorMessage\n    ) internal pure returns (uint256) {\n        unchecked {\n            require(b <= a, errorMessage);\n            return a - b;\n        }\n    }\n\n    /**\n     * @dev Returns the integer division of two unsigned integers, reverting with custom message on\n     * division by zero. The result is rounded towards zero.\n     *\n     * Counterpart to Solidity's `/` operator. Note: this function uses a\n     * `revert` opcode (which leaves remaining gas untouched) while Solidity\n     * uses an invalid opcode to revert (consuming all remaining gas).\n     *\n     * Requirements:\n     *\n     * - The divisor cannot be zero.\n     */\n    function div(\n        uint256 a,\n        uint256 b,\n        string memory errorMessage\n    ) internal pure returns (uint256) {\n        unchecked {\n            require(b > 0, errorMessage);\n            return a / b;\n        }\n    }\n\n    /**\n     * @dev Returns the remainder of dividing two unsigned integers. (unsigned integer modulo),\n     * reverting with custom message when dividing by zero.\n     *\n     * CAUTION: This function is deprecated because it requires allocating memory for the error\n     * message unnecessarily. For custom revert reasons use {tryMod}.\n     *\n     * Counterpart to Solidity's `%` operator. This function uses a `revert`\n     * opcode (which leaves remaining gas untouched) while Solidity uses an\n     * invalid opcode to revert (consuming all remaining gas).\n     *\n     * Requirements:\n     *\n     * - The divisor cannot be zero.\n     */\n    function mod(\n        uint256 a,\n        uint256 b,\n        string memory errorMessage\n    ) internal pure returns (uint256) {\n        unchecked {\n            require(b > 0, errorMessage);\n            return a % b;\n        }\n    }\n}\n\n\n\n/**\n * @dev Collection of functions related to the address type\n */\nlibrary Address {\n    /**\n     * @dev Returns true if `account` is a contract.\n     *\n     * [IMPORTANT]\n     * ====\n     * It is unsafe to assume that an address for which this function returns\n     * false is an externally-owned account (EOA) and not a contract.\n     *\n     * Among others, `isContract` will return false for the following\n     * types of addresses:\n     *\n     *  - an externally-owned account\n     *  - a contract in construction\n     *  - an address where a contract will be created\n     *  - an address where a contract lived, but was destroyed\n     * ====\n     */\n    function isContract(address account) internal view returns (bool) {\n        // This method relies on extcodesize, which returns 0 for contracts in\n        // construction, since the code is only stored at the end of the\n        // constructor execution.\n\n        uint256 size;\n        assembly {\n            size := extcodesize(account)\n        }\n        return size > 0;\n    }\n\n    /**\n     * @dev Replacement for Solidity's `transfer`: sends `amount` wei to\n     * `recipient`, forwarding all available gas and reverting on errors.\n     *\n     * https://eips.ethereum.org/EIPS/eip-1884[EIP1884] increases the gas cost\n     * of certain opcodes, possibly making contracts go over the 2300 gas limit\n     * imposed by `transfer`, making them unable to receive funds via\n     * `transfer`. {sendValue} removes this limitation.\n     *\n     * https://diligence.consensys.net/posts/2019/09/stop-using-soliditys-transfer-now/[Learn more].\n     *\n     * IMPORTANT: because control is transferred to `recipient`, care must be\n     * taken to not create reentrancy vulnerabilities. Consider using\n     * {ReentrancyGuard} or the\n     * https://solidity.readthedocs.io/en/v0.5.11/security-considerations.html#use-the-checks-effects-interactions-pattern[checks-effects-interactions pattern].\n     */\n    function sendValue(address payable recipient, uint256 amount) internal {\n        require(address(this).balance >= amount, \"Address: insufficient balance\");\n\n        (bool success, ) = recipient.call{value: amount}(\"\");\n        require(success, \"Address: unable to send value, recipient may have reverted\");\n    }\n\n    /**\n     * @dev Performs a Solidity function call using a low level `call`. A\n     * plain `call` is an unsafe replacement for a function call: use this\n     * function instead.\n     *\n     * If `target` reverts with a revert reason, it is bubbled up by this\n     * function (like regular Solidity function calls).\n     *\n     * Returns the raw returned data. To convert to the expected return value,\n     * use https://solidity.readthedocs.io/en/latest/units-and-global-variables.html?highlight=abi.decode#abi-encoding-and-decoding-functions[`abi.decode`].\n     *\n     * Requirements:\n     *\n     * - `target` must be a contract.\n     * - calling `target` with `data` must not revert.\n     *\n     * _Available since v3.1._\n     */\n    function functionCall(address target, bytes memory data) internal returns (bytes memory) {\n        return functionCall(target, data, \"Address: low-level call failed\");\n    }\n\n    /**\n     * @dev Same as {xref-Address-functionCall-address-bytes-}[`functionCall`], but with\n     * `errorMessage` as a fallback revert reason when `target` reverts.\n     *\n     * _Available since v3.1._\n     */\n    function functionCall(\n        address target,\n        bytes memory data,\n        string memory errorMessage\n    ) internal returns (bytes memory) {\n        return functionCallWithValue(target, data, 0, errorMessage);\n    }\n\n    /**\n     * @dev Same as {xref-Address-functionCall-address-bytes-}[`functionCall`],\n     * but also transferring `value` wei to `target`.\n     *\n     * Requirements:\n     *\n     * - the calling contract must have an ETH balance of at least `value`.\n     * - the called Solidity function must be `payable`.\n     *\n     * _Available since v3.1._\n     */\n    function functionCallWithValue(\n        address target,\n        bytes memory data,\n        uint256 value\n    ) internal returns (bytes memory) {\n        return functionCallWithValue(target, data, value, \"Address: low-level call with value failed\");\n    }\n\n    /**\n     * @dev Same as {xref-Address-functionCallWithValue-address-bytes-uint256-}[`functionCallWithValue`], but\n     * with `errorMessage` as a fallback revert reason when `target` reverts.\n     *\n     * _Available since v3.1._\n     */\n    function functionCallWithValue(\n        address target,\n        bytes memory data,\n        uint256 value,\n        string memory errorMessage\n    ) internal returns (bytes memory) {\n        require(address(this).balance >= value, \"Address: insufficient balance for call\");\n        require(isContract(target), \"Address: call to non-contract\");\n\n        (bool success, bytes memory returndata) = target.call{value: value}(data);\n        return verifyCallResult(success, returndata, errorMessage);\n    }\n\n    /**\n     * @dev Same as {xref-Address-functionCall-address-bytes-}[`functionCall`],\n     * but performing a static call.\n     *\n     * _Available since v3.3._\n     */\n    function functionStaticCall(address target, bytes memory data) internal view returns (bytes memory) {\n        return functionStaticCall(target, data, \"Address: low-level static call failed\");\n    }\n\n    /**\n     * @dev Same as {xref-Address-functionCall-address-bytes-string-}[`functionCall`],\n     * but performing a static call.\n     *\n     * _Available since v3.3._\n     */\n    function functionStaticCall(\n        address target,\n        bytes memory data,\n        string memory errorMessage\n    ) internal view returns (bytes memory) {\n        require(isContract(target), \"Address: static call to non-contract\");\n\n        (bool success, bytes memory returndata) = target.staticcall(data);\n        return verifyCallResult(success, returndata, errorMessage);\n    }\n\n    /**\n     * @dev Same as {xref-Address-functionCall-address-bytes-}[`functionCall`],\n     * but performing a delegate call.\n     *\n     * _Available since v3.4._\n     */\n    function functionDelegateCall(address target, bytes memory data) internal returns (bytes memory) {\n        return functionDelegateCall(target, data, \"Address: low-level delegate call failed\");\n    }\n\n    /**\n     * @dev Same as {xref-Address-functionCall-address-bytes-string-}[`functionCall`],\n     * but performing a delegate call.\n     *\n     * _Available since v3.4._\n     */\n    function functionDelegateCall(\n        address target,\n        bytes memory data,\n        string memory errorMessage\n    ) internal returns (bytes memory) {\n        require(isContract(target), \"Address: delegate call to non-contract\");\n\n        (bool success, bytes memory returndata) = target.delegatecall(data);\n        return verifyCallResult(success, returndata, errorMessage);\n    }\n\n    /**\n     * @dev Tool to verifies that a low level call was successful, and revert if it wasn't, either by bubbling the\n     * revert reason using the provided one.\n     *\n     * _Available since v4.3._\n     */\n    function verifyCallResult(\n        bool success,\n        bytes memory returndata,\n        string memory errorMessage\n    ) internal pure returns (bytes memory) {\n        if (success) {\n            return returndata;\n        } else {\n            // Look for revert reason and bubble it up if present\n            if (returndata.length > 0) {\n                // The easiest way to bubble the revert reason is using memory via assembly\n\n                assembly {\n                    let returndata_size := mload(returndata)\n                    revert(add(32, returndata), returndata_size)\n                }\n            } else {\n                revert(errorMessage);\n            }\n        }\n    }\n}\n\n\n\n/*\n * @dev Provides information about the current execution context, including the\n * sender of the transaction and its data. While these are generally available\n * via msg.sender and msg.data, they should not be accessed in such a direct\n * manner, since when dealing with GSN meta-transactions the account sending and\n * paying for execution may not be the actual sender (as far as an application\n * is concerned).\n *\n * This contract is only required for intermediate, library-like contracts.\n */\n\ninterface IPancakeswapV2Factory {\n    function createPair(address tokenA, address tokenB)\n        external\n        returns (address pair);\n}\n\ninterface IPancakeSwapV2Pair {\n    function sync() external;\n}\n\ninterface IPancakeswapV2Router01 {\n    function factory() external pure returns (address);\n\n    function WETH() external pure returns (address);\n\n    function addLiquidity(\n        address tokenA,\n        address tokenB,\n        uint256 amountADesired,\n        uint256 amountBDesired,\n        uint256 amountAMin,\n        uint256 amountBMin,\n        address to,\n        uint256 deadline\n    )\n        external\n        returns (\n            uint256 amountA,\n            uint256 amountB,\n            uint256 liquidity\n        );\n\n    function addLiquidityETH(\n        address token,\n        uint256 amountTokenDesired,\n        uint256 amountTokenMin,\n        uint256 amountETHMin,\n        address to,\n        uint256 deadline\n    )\n        external\n        payable\n        returns (\n            uint256 amountToken,\n            uint256 amountETH,\n            uint256 liquidity\n        );\n}\n\ninterface IPancakeswapV2Router02 is IPancakeswapV2Router01 {\n    function removeLiquidityETHSupportingFeeOnTransferTokens(\n        address token,\n        uint256 liquidity,\n        uint256 amountTokenMin,\n        uint256 amountETHMin,\n        address to,\n        uint256 deadline\n    ) external returns (uint256 amountETH);\n\n    function swapExactTokensForETHSupportingFeeOnTransferTokens(\n        uint256 amountIn,\n        uint256 amountOutMin,\n        address[] calldata path,\n        address to,\n        uint256 deadline\n    ) external;\n\n    function swapExactTokensForTokensSupportingFeeOnTransferTokens(\n        uint256 amountIn,\n        uint256 amountOutMin,\n        address[] calldata path,\n        address to,\n        uint256 deadline\n    ) external;\n\n    function swapExactETHForTokensSupportingFeeOnTransferTokens(\n        uint256 amountOutMin,\n        address[] calldata path,\n        address to,\n        uint256 deadline\n    ) external payable;\n}\n\nlibrary SafeCast {\n    function toUint128(uint256 value) internal pure returns (uint128) {\n        require(value < 2**128, \"SafeCast: value doesn't fit in 128 bits\");\n        return uint128(value);\n    }\n\n    function toUint64(uint256 value) internal pure returns (uint64) {\n        require(value < 2**64, \"SafeCast: value doesn't fit in 64 bits\");\n        return uint64(value);\n    }\n\n    function toUint32(uint256 value) internal pure returns (uint32) {\n        require(value < 2**32, \"SafeCast: value doesn't fit in 32 bits\");\n        return uint32(value);\n    }\n\n    function toUint16(uint256 value) internal pure returns (uint16) {\n        require(value < 2**16, \"SafeCast: value doesn't fit in 16 bits\");\n        return uint16(value);\n    }\n\n    function toUint8(uint256 value) internal pure returns (uint8) {\n        require(value < 2**8, \"SafeCast: value doesn't fit in 8 bits\");\n        return uint8(value);\n    }\n\n    function toUint256(int256 value) internal pure returns (uint256) {\n        require(value >= 0, \"SafeCast: value must be positive\");\n        return uint256(value);\n    }\n\n    function toInt256(uint256 value) internal pure returns (int256) {\n        require(value < 2**255, \"SafeCast: value doesn't fit in an int256\");\n        return int256(value);\n    }\n}\n\ncontract LuckyBlock is Context, IERC20, Ownable {\n    using SafeMath for uint256;\n    using Address for address;\n    using SafeCast for int256;\n\n    string private _name = \"LuckyBlock\";\n    string private _symbol = \"LBlock\";\n    uint8 private _decimals = 9;\n\n    mapping(address => uint256) internal _reflectionBalance;\n    mapping(address => uint256) internal _tokenBalance;\n    mapping(address => mapping(address => uint256)) internal _allowances;\n\n    uint256 private constant MAX = ~uint256(0);\n    uint256 internal _tokenTotal = 100_000_000_000e9;\n    uint256 internal _reflectionTotal = (MAX - (MAX % _tokenTotal));\n\n    mapping(address => bool) blacklist;\n    mapping(address => bool) isTaxless;\n    mapping(address => bool) internal _isExcluded;\n    address[] internal _excluded;\n\n    //all fees\n    uint256 public feeDecimal = 2;\n    //uint256 public sellFee = 0;\n    uint256 public taxFee = 0;\n    \n\n    uint256 public liquidityFee = 400;\n    uint256 public lotteryPoolFee = 400;\n    uint256 public nftRoyalPoolFee = 300;\n    uint256 public burnFee = 100;\n    uint256 public taxFeeTotal =0;\n\n    uint256 public feeTotal;\n    address public teamWallet;\n    //@dev can be configured. \n    address public distributionWallet= 0xE605c32F883EAae4b5777989a673430Ecc87c41E;\n    address public nftRoyalPoolWallet=0xdCb9780E81AbDb5598350D70acDA89CE7BaAFC9E;\n    address public lotteryPoolWallet=0x1C68DFB90D6F2acb05b7b34dF191e9C6B38E9Cb1;\n     address deadWallet = 0x000000000000000000000000000000000000dEaD;\n\n    address public admin;\n\n    bool private inSwapAndLiquify;\n    bool public swapAndLiquifyEnabled = true;\n    bool public isFeeActive = true; // should be true\n    uint256 public maxTxAmountPercentage = 500;\n    uint256 public maxTxAmount =\n        _tokenTotal.mul(maxTxAmountPercentage).div(10000); // 0.05%\n    uint256 public minTokensBeforeSwap = 100e9;\n\n    bool public sellCooldownEnabled = true;\n\n    uint256 public listedAt;\n\n    mapping(address => uint256) public transferAmounts;\n    mapping(address => uint256) public lastSellCycleStart;\n    mapping(address => uint256) public sellCooldown;\n    uint256 public sellCooldownTime = 10 minutes;\n    uint256 public sellCooldownAmount = _tokenTotal.mul(5).div(10000); // 0.05%\n\n    IPancakeswapV2Router02 public pancakeswapV2Router;\n    address public pancakeSwapV2Pair;\n\n    event SwapAndLiquifyEnabledUpdated(bool enabled);\n    event SwapAndLiquify(\n        uint256 tokensSwapped,\n        uint256 ethReceived,\n        uint256 tokensIntoLiqudity\n    );\n\n    modifier lockTheSwap() {\n        inSwapAndLiquify = true;\n        _;\n        inSwapAndLiquify = false;\n    }\n\n    modifier onlyOwnerAndAdmin() {\n        require(\n            owner() == _msgSender() || _msgSender() == admin,\n            \"Ownable: caller is not the owner or admin\"\n        );\n        _;\n    }\n\n    constructor(address router) {\n        // IPancakeswapV2Router02 _pancakeswapV2Router = IPancakeswapV2Router02(0x7a250d5630B4cF539739dF2C5dAcb4c659F2488D); // Uniswap Router For Ethereum\n        IPancakeswapV2Router02 _pancakeSwapV2Router = IPancakeswapV2Router02(\n            router\n        ); // Uniswap Router For Ethereum\n        pancakeSwapV2Pair = IPancakeswapV2Factory(\n            _pancakeSwapV2Router.factory()\n        ).createPair(address(this), _pancakeSwapV2Router.WETH());\n        pancakeswapV2Router = _pancakeSwapV2Router;\n\n        address _owner = msg.sender;\n        teamWallet = msg.sender;\n\n        isTaxless[_owner] = true;\n        isTaxless[teamWallet] = true;\n\n        _isExcluded[pancakeSwapV2Pair] = true;\n        _excluded.push(pancakeSwapV2Pair);\n\n        _reflectionBalance[_owner] = _reflectionTotal;\n        _tokenBalance[_owner] = _tokenTotal;\n        emit Transfer(address(0), _owner, _tokenTotal);\n\n        transferOwnership(_owner);\n    }\n\n    function name() public view returns (string memory) {\n        return _name;\n    }\n\n    function symbol() public view returns (string memory) {\n        return _symbol;\n    }\n\n    function decimals() public view returns (uint8) {\n        return _decimals;\n    }\n\n    function totalSupply() public view override returns (uint256) {\n        return _tokenTotal;\n    }\n\n    function balanceOf(address account) public view override returns (uint256) {\n        if (_isExcluded[account]) return _tokenBalance[account];\n        return tokenFromReflection(_reflectionBalance[account]);\n    }\n\n    function transfer(address recipient, uint256 amount)\n        public\n        virtual\n        override\n        returns (bool)\n    {\n        _transfer(_msgSender(), recipient, amount);\n        return true;\n    }\n\n    function allowance(address owner, address spender)\n        public\n        view\n        override\n        returns (uint256)\n    {\n        return _allowances[owner][spender];\n    }\n\n    function approve(address spender, uint256 amount)\n        public\n        override\n        returns (bool)\n    {\n        _approve(_msgSender(), spender, amount);\n        return true;\n    }\n\n    function transferFrom(\n        address sender,\n        address recipient,\n        uint256 amount\n    ) public virtual override returns (bool) {\n        _transfer(sender, recipient, amount);\n\n        _approve(\n            sender,\n            _msgSender(),\n            _allowances[sender][_msgSender()].sub(\n                amount,\n                \"ERC20: transfer amount exceeds allowance\"\n            )\n        );\n        return true;\n    }\n\n    function increaseAllowance(address spender, uint256 addedValue)\n        public\n        virtual\n        returns (bool)\n    {\n        _approve(\n            _msgSender(),\n            spender,\n            _allowances[_msgSender()][spender].add(addedValue)\n        );\n        return true;\n    }\n\n    function decreaseAllowance(address spender, uint256 subtractedValue)\n        public\n        virtual\n        returns (bool)\n    {\n        _approve(\n            _msgSender(),\n            spender,\n            _allowances[_msgSender()][spender].sub(\n                subtractedValue,\n                \"ERC20: decreased allowance below zero\"\n            )\n        );\n        return true;\n    }\n\n    function isExcluded(address account) public view returns (bool) {\n        return _isExcluded[account];\n    }\n\n    function reflectionFromToken(uint256 tokenAmount)\n        public\n        view\n        returns (uint256)\n    {\n        require(tokenAmount <= _tokenTotal, \"Amount must be less than supply\");\n        return tokenAmount.mul(_getReflectionRate());\n    }\n\n    function tokenFromReflection(uint256 reflectionAmount)\n        public\n        view\n        returns (uint256)\n    {\n        require(\n            reflectionAmount <= _reflectionTotal,\n            \"Amount must be less than total reflections\"\n        );\n        return reflectionAmount.div(_getReflectionRate());\n    }\n\n    function excludeAccount(address account) external onlyOwner {\n        require(\n            account != address(pancakeswapV2Router),\n            \"TOKEN: We can not exclude Pacakeswap router.\"\n        );\n\n        require(!_isExcluded[account], \"TOKEN: Account is already excluded\");\n        if (_reflectionBalance[account] > 0) {\n            _tokenBalance[account] = tokenFromReflection(\n                _reflectionBalance[account]\n            );\n        }\n        _isExcluded[account] = true;\n        _excluded.push(account);\n    }\n\n    function includeAccount(address account) external onlyOwner {\n        require(_isExcluded[account], \"TOKEN: Account is already included\");\n        for (uint256 i = 0; i < _excluded.length; i++) {\n            if (_excluded[i] == account) {\n                _excluded[i] = _excluded[_excluded.length - 1];\n                _tokenBalance[account] = 0;\n                _isExcluded[account] = false;\n                _excluded.pop();\n                break;\n            }\n        }\n    }\n\n    function _approve(\n        address owner,\n        address spender,\n        uint256 amount\n    ) private {\n        require(owner != address(0), \"BEP20: approve from the zero address\");\n        require(spender != address(0), \"BEP20: approve to the zero address\");\n\n        _allowances[owner][spender] = amount;\n        emit Approval(owner, spender, amount);\n    }\n\n    function _transfer(\n        address sender,\n        address recipient,\n        uint256 amount\n    ) private {\n        require(sender != address(0), \"BEP20: transfer from the zero address\");\n        require(recipient != address(0), \"BEP20: transfer to the zero address\");\n        require(amount > 0, \"Transfer amount must be greater than zero\");\n\n        require(\n            isTaxless[sender] || isTaxless[recipient] || amount <= maxTxAmount,\n            \"Max Transfer Limit Exceeds!\"\n        );\n\n        require(!blacklist[sender], \"Banned!\");\n\n        require(\n            listedAt != 0 || isTaxless[sender] || isTaxless[recipient],\n            \"Not Listed yet!\"\n        );\n\n        if (\n            !isTaxless[sender] &&\n            !isTaxless[recipient] &&\n            listedAt + 3 minutes >= block.timestamp\n        ) {\n            // don't allow to buy more than 0.01% of total supply for 3 minutes after launch\n            require(\n                sender != pancakeSwapV2Pair ||\n                    balanceOf(recipient).add(amount) <= _tokenTotal.div(10000),\n                \"AntiBot: Buy Banned!\"\n            );\n            if (listedAt + 180 seconds >= block.timestamp)\n                // don't allow sell for 180 seconds afer launch\n                require(\n                    recipient != pancakeSwapV2Pair,\n                    \"AntiBot: Sell Banned!\"\n                );\n        }\n\n        if (\n            sellCooldownEnabled &&\n            recipient == pancakeSwapV2Pair &&\n            !isTaxless[sender]\n        ) {\n            require(\n                sellCooldown[sender] < block.timestamp,\n                \"Err: Sell Cooldown\"\n            );\n            if (\n                lastSellCycleStart[sender] + sellCooldownTime < block.timestamp\n            ) {\n                lastSellCycleStart[sender] = block.timestamp;\n                transferAmounts[sender] = 0;\n            }\n            transferAmounts[sender] = transferAmounts[sender].add(amount);\n            if (transferAmounts[sender] >= sellCooldownAmount) {\n                sellCooldown[sender] = block.timestamp + sellCooldownTime;\n            }\n        }\n\n        uint256 transferAmount = amount;\n        uint256 rate = _getReflectionRate();\n\n        //swapAndLiquify\n        uint256 contractTokenBalance = balanceOf(address(this));\n        if (\n            swapAndLiquifyEnabled &&\n            !inSwapAndLiquify &&\n            sender != pancakeSwapV2Pair &&\n            contractTokenBalance >= minTokensBeforeSwap\n        ) {\n            swapAndLiquify(contractTokenBalance);\n        }\n\n        if (\n            isFeeActive &&\n            !isTaxless[sender] &&\n            !isTaxless[recipient] &&\n            !inSwapAndLiquify\n        ) {\n            transferAmount = collectFee(sender, recipient, amount, rate);\n        }\n\n        //transfer reflection\n        _reflectionBalance[sender] = _reflectionBalance[sender].sub(\n            amount.mul(rate)\n        );\n        _reflectionBalance[recipient] = _reflectionBalance[recipient].add(\n            transferAmount.mul(rate)\n        );\n\n        //if any account belongs to the excludedAccount transfer token\n        if (_isExcluded[sender]) {\n            _tokenBalance[sender] = _tokenBalance[sender].sub(amount);\n        }\n        if (_isExcluded[recipient]) {\n            _tokenBalance[recipient] = _tokenBalance[recipient].add(\n                transferAmount\n            );\n        }\n\n        emit Transfer(sender, recipient, transferAmount);\n    }\n\n    function collectFee(\n        address account,\n        address to,\n        uint256 amount,\n        uint256 rate\n    ) private returns (uint256) {\n        uint256 transferAmount = amount;\n        //This fee is applicable when the lottery contract is going to reward to the token holders.\n         if(taxFee != 0 && to == distributionWallet){\n            uint256 _taxFee = amount.mul(taxFee).div(10**(feeDecimal + 2));\n            transferAmount = transferAmount.sub(_taxFee);\n            _reflectionTotal = _reflectionTotal.sub(_taxFee.mul(rate));\n            taxFeeTotal = taxFeeTotal.add(_taxFee);\n             emit Transfer(account, distributionWallet, _taxFee);\n        }\n        // @dev liquidity fee 4 On sale\n        if (liquidityFee != 0 && to == pancakeSwapV2Pair) {\n            uint256 _liquidityFee = amount.mul(liquidityFee).div(\n                10**(feeDecimal + 2)\n            );\n            transferAmount = transferAmount.sub(_liquidityFee);\n            _reflectionBalance[address(this)] = _reflectionBalance[\n                address(this)\n            ].add(_liquidityFee.mul(rate));\n            if (_isExcluded[address(this)]) {\n                _tokenBalance[address(this)] = _tokenBalance[address(this)].add(\n                    _liquidityFee\n                );\n            }\n            feeTotal = feeTotal.add(_liquidityFee);\n            emit Transfer(account, address(this), _liquidityFee);\n        }\n\n       // @dev Lottery Pool fee 4 On sale\n        if (lotteryPoolFee != 0 && to == pancakeSwapV2Pair) {\n            uint256 _lotteryPoolFee = amount.mul(lotteryPoolFee).div(10**(feeDecimal + 2));\n            transferAmount = transferAmount.sub(_lotteryPoolFee);\n            _reflectionBalance[lotteryPoolWallet] = _reflectionBalance[lotteryPoolWallet].add(\n                _lotteryPoolFee.mul(rate)\n            );\n            if (_isExcluded[lotteryPoolWallet]) {\n                _tokenBalance[lotteryPoolWallet] = _tokenBalance[lotteryPoolWallet].add(\n                    _lotteryPoolFee\n                );\n            }\n            feeTotal = feeTotal.add(_lotteryPoolFee);\n            emit Transfer(account, lotteryPoolWallet, _lotteryPoolFee);\n        }\n        \n         // @dev nftRoyalPoolFee fee 3 on Sale\n        if (nftRoyalPoolFee != 0 && to == pancakeSwapV2Pair) {\n            uint256 _nftRoyalPoolFee = amount.mul(nftRoyalPoolFee).div(10**(feeDecimal + 2));\n            transferAmount = transferAmount.sub(_nftRoyalPoolFee);\n            _reflectionBalance[nftRoyalPoolWallet] = _reflectionBalance[nftRoyalPoolWallet].add(\n                _nftRoyalPoolFee.mul(rate)\n            );\n            if (_isExcluded[nftRoyalPoolWallet]) {\n                _tokenBalance[nftRoyalPoolWallet] = _tokenBalance[nftRoyalPoolWallet].add(\n                    _nftRoyalPoolFee\n                );\n            }\n            feeTotal = feeTotal.add(_nftRoyalPoolFee);\n            emit Transfer(account, nftRoyalPoolWallet, _nftRoyalPoolFee);\n        }\n        \n        // @dev burn fee 1 on Sale\n        if (burnFee != 0 && to == pancakeSwapV2Pair) {\n            uint256 _burnFee = amount.mul(burnFee).div(10**(feeDecimal + 2));\n            transferAmount = transferAmount.sub(_burnFee);\n            _tokenBalance[deadWallet] = _tokenBalance[deadWallet].add(_burnFee);\n            emit Transfer(account, deadWallet, _burnFee);\n        }\n\n        return transferAmount;\n    }\n  \n    function _getReflectionRate() private view returns (uint256) {\n        uint256 reflectionSupply = _reflectionTotal;\n        uint256 tokenSupply = _tokenTotal;\n        for (uint256 i = 0; i < _excluded.length; i++) {\n            if (\n                _reflectionBalance[_excluded[i]] > reflectionSupply ||\n                _tokenBalance[_excluded[i]] > tokenSupply\n            ) return _reflectionTotal.div(_tokenTotal);\n            reflectionSupply = reflectionSupply.sub(\n                _reflectionBalance[_excluded[i]]\n            );\n            tokenSupply = tokenSupply.sub(_tokenBalance[_excluded[i]]);\n        }\n        if (reflectionSupply < _reflectionTotal.div(_tokenTotal))\n            return _reflectionTotal.div(_tokenTotal);\n        return reflectionSupply.div(tokenSupply);\n    }\n\n    function swapAndLiquify(uint256 contractTokenBalance) private lockTheSwap {\n        if (contractTokenBalance > maxTxAmount)\n            contractTokenBalance = maxTxAmount;\n\n        // split the contract balance into halves\n        uint256 half = contractTokenBalance.div(2);\n        uint256 otherHalf = contractTokenBalance.sub(half);\n\n        // capture the contract's current ETH balance.\n        // this is so that we can capture exactly the amount of ETH that the\n        // swap creates, and not make the liquidity event include any ETH that\n        // has been manually sent to the contract\n        uint256 initialBalance = address(this).balance;\n\n        // swap tokens for BNB\n        swapTokensForBnb(half); // <- this breaks the BNB -> HATE swap when swap+liquify is triggered\n\n        // how much ETH did we just swap into?\n        uint256 newBalance = address(this).balance.sub(initialBalance);\n\n        // add liquidity to uniswap\n        addLiquidity(otherHalf, newBalance);\n\n        emit SwapAndLiquify(half, newBalance, otherHalf);\n    }\n\n    function swapTokensForBnb(uint256 tokenAmount) private {\n        // generate the uniswap pair path of token -> weth\n        address[] memory path = new address[](2);\n        path[0] = address(this);\n        path[1] = pancakeswapV2Router.WETH();\n\n        _approve(address(this), address(pancakeswapV2Router), tokenAmount);\n\n        // make the swap\n        pancakeswapV2Router.swapExactTokensForETHSupportingFeeOnTransferTokens(\n            tokenAmount,\n            0, // accept any amount of ETH\n            path,\n            address(this),\n            block.timestamp\n        );\n    }\n\n    function addLiquidity(uint256 tokenAmount, uint256 ethAmount) private {\n        // approve token transfer to cover all possible scenarios\n        _approve(address(this), address(pancakeswapV2Router), tokenAmount);\n\n        // add the liquidity\n        pancakeswapV2Router.addLiquidityETH{value: ethAmount}(\n            address(this),\n            tokenAmount,\n            0, // slippage is unavoidable\n            0, // slippage is unavoidable\n            address(this),\n            block.timestamp\n        );\n    }\n\n    function deliver(uint256 amount) external {\n        require(!_isExcluded[msg.sender], \"Excluded cannot call this!\");\n        uint256 rate = _getReflectionRate();\n        _reflectionBalance[msg.sender] = _reflectionBalance[msg.sender].sub(\n            amount.mul(rate)\n        );\n        _reflectionTotal = _reflectionTotal.sub(amount.mul(rate));\n        feeTotal = feeTotal.add(amount);\n        taxFeeTotal = taxFeeTotal.add(amount);\n        emit Transfer(msg.sender, address(this), amount);\n    }\n\n    function setTaxless(address account, bool value)\n        external\n        onlyOwnerAndAdmin\n    {\n        isTaxless[account] = value;\n    }\n\n    function setBlacklist(address account, bool value)\n        external\n        onlyOwnerAndAdmin\n    {\n        blacklist[account] = value;\n    }\n\n    function setSwapAndLiquifyEnabled(bool enabled) external onlyOwnerAndAdmin {\n        swapAndLiquifyEnabled = enabled;\n        emit SwapAndLiquifyEnabledUpdated(enabled);\n    }\n\n    function setFeeActive(bool value) external onlyOwnerAndAdmin {\n        isFeeActive = value;\n    }\n\n    function setRedistributionFee(uint256 fee) external onlyOwnerAndAdmin {\n        taxFee = fee;\n    }\n\n    function setLiquidityFee(uint256 fee) external onlyOwnerAndAdmin {\n        liquidityFee = fee;\n    }\n\n   \n\n    // function setSellFee(uint256 fee) external onlyOwnerAndAdmin {\n    //     sellFee = fee;\n    // }\n\n    function setLotteryPoolFee(uint256 fee) external onlyOwner {\n        lotteryPoolFee = fee; //4\n    }\n\n    function setNFTPoolFee(uint256 fee) external onlyOwner {\n        nftRoyalPoolFee = fee; //4\n    }\n\n    function setBurnFee(uint256 fee) external onlyOwner {\n        burnFee = fee; //1\n    }\n\n    function setTeamWallet(address wallet) external onlyOwner {\n        teamWallet = wallet;\n    }\n     function setDistributionWallet(address wallet) external onlyOwner {\n        distributionWallet = wallet;\n    }\n\n    function setNFTPoolWallet(address wallet) external onlyOwner {\n        nftRoyalPoolWallet = wallet;\n    }\n\n    function setLotteryPoolWallet(address wallet) external onlyOwner {\n        lotteryPoolWallet = wallet;\n    }\n\n    function setMaxTxAmountPercentage(uint256 _maxAmountTxPercentage)\n        external\n        onlyOwner\n    {\n        maxTxAmountPercentage = _maxAmountTxPercentage;\n    }\n\n    function setAdmin(address account) external onlyOwner {\n        admin = account;\n    }\n\n    function setMinTokensBeforeSwap(uint256 amount) external onlyOwnerAndAdmin {\n        minTokensBeforeSwap = amount;\n    }\n\n    function setSellCooldonwEnabled(bool value) external onlyOwnerAndAdmin {\n        sellCooldownEnabled = value;\n    }\n\n    function setSellCooldown(uint256 interval, uint256 amount)\n        external\n        onlyOwnerAndAdmin\n    {\n        sellCooldownTime = interval;\n        sellCooldownAmount = amount;\n    }\n\n    function launch() external onlyOwner {\n        require(listedAt == 0, \"Already Listed!\");\n        listedAt = block.timestamp;\n    }\n\n    receive() external payable {}\n\n      /**\n     * @dev Remember that only owner can call so be careful when use on contracts generated from other contracts.\n     * @param tokenAddress The token contract address\n     * @param tokenAmount Number of tokens to be sent\n     */\n    function recoverERC20(address tokenAddress, uint256 tokenAmount) public  onlyOwner {\n        IERC20(tokenAddress).transfer(owner(), tokenAmount);\n    }\n\n    //Recover eth accidentally sent to the contract\n    function claim(address payable destination) public onlyOwner {\n        destination.transfer(address(this).balance);\n    }\n\n}\n",
  "sourcePath": "/Users/crypto/Desktop/inhouse/the-troller/tournament/contracts/LuckyBlock.sol",
  "compiler": {
    "name": "solc",
    "version": "0.8.0+commit.c7dfd78e.Emscripten.clang"
  },
  "schemaVersion": "3.4.3",
  "updatedAt": "2021-12-03T03:52:51.459Z",
  "networkType": "ethereum",
  "devdoc": {
    "kind": "dev",
    "methods": {
      "allowance(address,address)": {
        "details": "Returns the remaining number of tokens that `spender` will be allowed to spend on behalf of `owner` through {transferFrom}. This is zero by default. This value changes when {approve} or {transferFrom} are called."
      },
      "approve(address,uint256)": {
        "details": "Sets `amount` as the allowance of `spender` over the caller's tokens. Returns a boolean value indicating whether the operation succeeded. IMPORTANT: Beware that changing an allowance with this method brings the risk that someone may use both the old and the new allowance by unfortunate transaction ordering. One possible solution to mitigate this race condition is to first reduce the spender's allowance to 0 and set the desired value afterwards: https://github.com/ethereum/EIPs/issues/20#issuecomment-263524729 Emits an {Approval} event."
      },
      "balanceOf(address)": {
        "details": "Returns the amount of tokens owned by `account`."
      },
      "owner()": {
        "details": "Returns the address of the current owner."
      },
      "recoverERC20(address,uint256)": {
        "details": "Remember that only owner can call so be careful when use on contracts generated from other contracts.",
        "params": {
          "tokenAddress": "The token contract address",
          "tokenAmount": "Number of tokens to be sent"
        }
      },
      "renounceOwnership()": {
        "details": "Leaves the contract without owner. It will not be possible to call `onlyOwner` functions anymore. Can only be called by the current owner. NOTE: Renouncing ownership will leave the contract without an owner, thereby removing any functionality that is only available to the owner."
      },
      "totalSupply()": {
        "details": "Returns the amount of tokens in existence."
      },
      "transfer(address,uint256)": {
        "details": "Moves `amount` tokens from the caller's account to `recipient`. Returns a boolean value indicating whether the operation succeeded. Emits a {Transfer} event."
      },
      "transferFrom(address,address,uint256)": {
        "details": "Moves `amount` tokens from `sender` to `recipient` using the allowance mechanism. `amount` is then deducted from the caller's allowance. Returns a boolean value indicating whether the operation succeeded. Emits a {Transfer} event."
      },
      "transferOwnership(address)": {
        "details": "Transfers ownership of the contract to a new account (`newOwner`). Can only be called by the current owner."
      }
    },
    "version": 1
  },
  "userdoc": {
    "kind": "user",
    "methods": {},
    "version": 1
  }
}