{
  "contractName": "Presale",
  "abi": [
    {
      "inputs": [
        {
          "internalType": "address",
          "name": "_token",
          "type": "address"
        },
        {
          "internalType": "address",
          "name": "_recipient",
          "type": "address"
        },
        {
          "internalType": "uint256",
          "name": "_MaxValue",
          "type": "uint256"
        }
      ],
      "stateMutability": "nonpayable",
      "type": "constructor"
    },
    {
      "anonymous": false,
      "inputs": [
        {
          "indexed": true,
          "internalType": "address",
          "name": "previousOwner",
          "type": "address"
        },
        {
          "indexed": true,
          "internalType": "address",
          "name": "newOwner",
          "type": "address"
        }
      ],
      "name": "OwnershipTransferred",
      "type": "event"
    },
    {
      "anonymous": false,
      "inputs": [
        {
          "indexed": false,
          "internalType": "address",
          "name": "walletAddress",
          "type": "address"
        },
        {
          "indexed": false,
          "internalType": "address",
          "name": "userAddress",
          "type": "address"
        },
        {
          "indexed": false,
          "internalType": "uint256",
          "name": "amount",
          "type": "uint256"
        }
      ],
      "name": "WalletCreated",
      "type": "event"
    },
    {
      "inputs": [],
      "name": "hardcap",
      "outputs": [
        {
          "internalType": "uint256",
          "name": "",
          "type": "uint256"
        }
      ],
      "stateMutability": "view",
      "type": "function"
    },
    {
      "inputs": [],
      "name": "isPresaleOpen",
      "outputs": [
        {
          "internalType": "bool",
          "name": "",
          "type": "bool"
        }
      ],
      "stateMutability": "view",
      "type": "function"
    },
    {
      "inputs": [],
      "name": "maxEthLimit",
      "outputs": [
        {
          "internalType": "uint256",
          "name": "",
          "type": "uint256"
        }
      ],
      "stateMutability": "view",
      "type": "function"
    },
    {
      "inputs": [],
      "name": "minEthLimit",
      "outputs": [
        {
          "internalType": "uint256",
          "name": "",
          "type": "uint256"
        }
      ],
      "stateMutability": "view",
      "type": "function"
    },
    {
      "inputs": [],
      "name": "owner",
      "outputs": [
        {
          "internalType": "address",
          "name": "",
          "type": "address"
        }
      ],
      "stateMutability": "view",
      "type": "function"
    },
    {
      "inputs": [
        {
          "internalType": "uint256",
          "name": "",
          "type": "uint256"
        }
      ],
      "name": "priceBrackets",
      "outputs": [
        {
          "internalType": "uint256",
          "name": "",
          "type": "uint256"
        }
      ],
      "stateMutability": "view",
      "type": "function"
    },
    {
      "inputs": [
        {
          "internalType": "uint256",
          "name": "",
          "type": "uint256"
        }
      ],
      "name": "rLockinPeriod",
      "outputs": [
        {
          "internalType": "uint256",
          "name": "",
          "type": "uint256"
        }
      ],
      "stateMutability": "view",
      "type": "function"
    },
    {
      "inputs": [
        {
          "internalType": "uint256",
          "name": "",
          "type": "uint256"
        }
      ],
      "name": "rPercent",
      "outputs": [
        {
          "internalType": "uint256",
          "name": "",
          "type": "uint256"
        }
      ],
      "stateMutability": "view",
      "type": "function"
    },
    {
      "inputs": [
        {
          "internalType": "uint256",
          "name": "",
          "type": "uint256"
        }
      ],
      "name": "rStep",
      "outputs": [
        {
          "internalType": "uint256",
          "name": "",
          "type": "uint256"
        }
      ],
      "stateMutability": "view",
      "type": "function"
    },
    {
      "inputs": [],
      "name": "rateDecimals",
      "outputs": [
        {
          "internalType": "uint256",
          "name": "",
          "type": "uint256"
        }
      ],
      "stateMutability": "view",
      "type": "function"
    },
    {
      "inputs": [],
      "name": "recipient",
      "outputs": [
        {
          "internalType": "address",
          "name": "",
          "type": "address"
        }
      ],
      "stateMutability": "view",
      "type": "function"
    },
    {
      "inputs": [],
      "name": "renounceOwnership",
      "outputs": [],
      "stateMutability": "nonpayable",
      "type": "function"
    },
    {
      "inputs": [],
      "name": "tokenAddress",
      "outputs": [
        {
          "internalType": "address",
          "name": "",
          "type": "address"
        }
      ],
      "stateMutability": "view",
      "type": "function"
    },
    {
      "inputs": [],
      "name": "tokenDecimals",
      "outputs": [
        {
          "internalType": "uint256",
          "name": "",
          "type": "uint256"
        }
      ],
      "stateMutability": "view",
      "type": "function"
    },
    {
      "inputs": [],
      "name": "tokenRatePerEth",
      "outputs": [
        {
          "internalType": "uint256",
          "name": "",
          "type": "uint256"
        }
      ],
      "stateMutability": "view",
      "type": "function"
    },
    {
      "inputs": [],
      "name": "tokenSold",
      "outputs": [
        {
          "internalType": "uint256",
          "name": "",
          "type": "uint256"
        }
      ],
      "stateMutability": "view",
      "type": "function"
    },
    {
      "inputs": [],
      "name": "totalBNBAmount",
      "outputs": [
        {
          "internalType": "uint256",
          "name": "",
          "type": "uint256"
        }
      ],
      "stateMutability": "view",
      "type": "function"
    },
    {
      "inputs": [
        {
          "internalType": "address",
          "name": "newOwner",
          "type": "address"
        }
      ],
      "name": "transferOwnership",
      "outputs": [],
      "stateMutability": "nonpayable",
      "type": "function"
    },
    {
      "inputs": [
        {
          "internalType": "address",
          "name": "",
          "type": "address"
        }
      ],
      "name": "usersInvestments",
      "outputs": [
        {
          "internalType": "uint256",
          "name": "",
          "type": "uint256"
        }
      ],
      "stateMutability": "view",
      "type": "function"
    },
    {
      "stateMutability": "payable",
      "type": "receive"
    },
    {
      "inputs": [
        {
          "internalType": "address",
          "name": "_walletFactory",
          "type": "address"
        }
      ],
      "name": "setWalletFactory",
      "outputs": [],
      "stateMutability": "nonpayable",
      "type": "function"
    },
    {
      "inputs": [
        {
          "internalType": "address",
          "name": "_recipient",
          "type": "address"
        }
      ],
      "name": "setRecipient",
      "outputs": [],
      "stateMutability": "nonpayable",
      "type": "function"
    },
    {
      "inputs": [
        {
          "internalType": "uint256[]",
          "name": "_rStep",
          "type": "uint256[]"
        }
      ],
      "name": "setRStep",
      "outputs": [],
      "stateMutability": "nonpayable",
      "type": "function"
    },
    {
      "inputs": [
        {
          "internalType": "uint256[]",
          "name": "_priceBrackets",
          "type": "uint256[]"
        }
      ],
      "name": "setPriceBrackets",
      "outputs": [],
      "stateMutability": "nonpayable",
      "type": "function"
    },
    {
      "inputs": [
        {
          "internalType": "uint256[]",
          "name": "_rPercent",
          "type": "uint256[]"
        }
      ],
      "name": "setRPercentage",
      "outputs": [],
      "stateMutability": "nonpayable",
      "type": "function"
    },
    {
      "inputs": [
        {
          "internalType": "uint256[]",
          "name": "_rLockinPeriod",
          "type": "uint256[]"
        }
      ],
      "name": "setRLockine",
      "outputs": [],
      "stateMutability": "nonpayable",
      "type": "function"
    },
    {
      "inputs": [
        {
          "internalType": "uint256",
          "name": "_hardcap",
          "type": "uint256"
        }
      ],
      "name": "setHardcap",
      "outputs": [],
      "stateMutability": "nonpayable",
      "type": "function"
    },
    {
      "inputs": [],
      "name": "startPresale",
      "outputs": [],
      "stateMutability": "nonpayable",
      "type": "function"
    },
    {
      "inputs": [],
      "name": "closePrsale",
      "outputs": [],
      "stateMutability": "nonpayable",
      "type": "function"
    },
    {
      "inputs": [
        {
          "internalType": "address",
          "name": "token",
          "type": "address"
        }
      ],
      "name": "setTokenAddress",
      "outputs": [],
      "stateMutability": "nonpayable",
      "type": "function"
    },
    {
      "inputs": [
        {
          "internalType": "uint256",
          "name": "decimals",
          "type": "uint256"
        }
      ],
      "name": "setTokenDecimals",
      "outputs": [],
      "stateMutability": "nonpayable",
      "type": "function"
    },
    {
      "inputs": [
        {
          "internalType": "uint256",
          "name": "amount",
          "type": "uint256"
        }
      ],
      "name": "setMinEthLimit",
      "outputs": [],
      "stateMutability": "nonpayable",
      "type": "function"
    },
    {
      "inputs": [
        {
          "internalType": "uint256",
          "name": "amount",
          "type": "uint256"
        }
      ],
      "name": "setMaxEthLimit",
      "outputs": [],
      "stateMutability": "nonpayable",
      "type": "function"
    },
    {
      "inputs": [
        {
          "internalType": "uint256",
          "name": "rate",
          "type": "uint256"
        }
      ],
      "name": "setTokenRatePerEth",
      "outputs": [],
      "stateMutability": "nonpayable",
      "type": "function"
    },
    {
      "inputs": [
        {
          "internalType": "uint256",
          "name": "decimals",
          "type": "uint256"
        }
      ],
      "name": "setRateDecimals",
      "outputs": [],
      "stateMutability": "nonpayable",
      "type": "function"
    },
    {
      "inputs": [],
      "name": "buyToken",
      "outputs": [
        {
          "internalType": "address",
          "name": "",
          "type": "address"
        }
      ],
      "stateMutability": "payable",
      "type": "function"
    },
    {
      "inputs": [],
      "name": "burnUnsoldTokens",
      "outputs": [],
      "stateMutability": "nonpayable",
      "type": "function"
    },
    {
      "inputs": [
        {
          "internalType": "address",
          "name": "to",
          "type": "address"
        }
      ],
      "name": "getUnsoldTokens",
      "outputs": [],
      "stateMutability": "nonpayable",
      "type": "function"
    },
    {
      "inputs": [
        {
          "internalType": "uint256",
          "name": "amount",
          "type": "uint256"
        }
      ],
      "name": "getBracketRange",
      "outputs": [
        {
          "internalType": "uint256",
          "name": "range",
          "type": "uint256"
        }
      ],
      "stateMutability": "view",
      "type": "function"
    }
  ],
  "bytecode": "0x6000805460ff60a01b1916600160a01b178155600180546001600160a01b03191673de15a1d94ee79e62fc0e919352503b8d04489189179055600960025562030d40600355600481815560058290556006805460ff1916905560079190915561010060405260826080908152607860a052606e60c052606460e05262000089916008919062000218565b506040805160808101825260c881526101906020820152610258918101919091526103206060820152620000c29060099060046200026d565b506040805160808101825260008152601e6020820152603c9181019190915260b46060820152620000f890600a90600462000218565b506040805160808101825260018152600260208201526003918101919091526004606082018190526200012e91600b9162000218565b50683635c9adc5dea00000600c5560016010556000196011553480156200015457600080fd5b50604051620021ce380380620021ce8339810160408190526200017791620002e5565b6200018b62000185620001c4565b620001c8565b600180546001600160a01b039485166001600160a01b0319918216179091556013805493909416921691909117909155600e5562000325565b3390565b600080546001600160a01b038381166001600160a01b0319831681178455604051919092169283917f8be0079c531659141344cd1fd0a4f28419497f9722a3daafe3b4186f6b6457e09190a35050565b8280548282559060005260206000209081019282156200025b579160200282015b828111156200025b578251829060ff1690559160200191906001019062000239565b5062000269929150620002b1565b5090565b8280548282559060005260206000209081019282156200025b579160200282015b828111156200025b578251829061ffff169055916020019190600101906200028e565b5b80821115620002695760008155600101620002b2565b80516001600160a01b0381168114620002e057600080fd5b919050565b600080600060608486031215620002fa578283fd5b6200030584620002c8565b92506200031560208501620002c8565b9150604084015190509250925092565b611e9980620003356000396000f3fe6080604052600436106102895760003560e01c80637ebf879c11610153578063c6d25ba4116100cb578063eb4f847b1161007f578063f288dc1011610064578063f288dc101461067e578063f2fde38b14610693578063faa06d6f146106b357610299565b8063eb4f847b1461063c578063f1cf257f1461065e57610299565b8063e28fa27d116100b0578063e28fa27d146105e7578063e4c13b9214610607578063e868764c1461062757610299565b8063c6d25ba4146105b2578063ce00bdef146105d257610299565b80639d76ea5811610122578063a846b6dc11610107578063a846b6dc1461055d578063b071cbe61461057d578063b97af2c81461059257610299565b80639d76ea5814610540578063a48217191461055557610299565b80637ebf879c146104d65780638da5cb5b146104f657806393e74ba41461050b578063940bb3441461052b57610299565b80633bbed4a011610201578063697ed9f5116101b5578063715018a61161019a578063715018a61461048c57806375305fc6146104a157806375ec6484146104b657610299565b8063697ed9f51461044c5780636e3b933e1461046c57610299565b80635bb2a528116101e65780635bb2a528146103ea5780635db3dc101461040a57806366d003ac1461042a57610299565b80633bbed4a0146103b5578063519ee19e146103d557610299565b80631f3cbba4116102585780632547865b1161023d5780632547865b1461036057806326a4e8d2146103805780633b97e856146103a057610299565b80631f3cbba4146103205780632243f3c51461034057610299565b806304c98b2b1461029e578063168870cb146102b557806317c218cd146102d55780631a3480b5146102f557610299565b36610299576102966106c8565b50005b600080fd5b3480156102aa57600080fd5b506102b361094b565b005b3480156102c157600080fd5b506102b36102d036600461185a565b6109c9565b3480156102e157600080fd5b506102b36102f036600461185a565b610a93565b34801561030157600080fd5b5061030a610ae5565b6040516103179190611c7c565b60405180910390f35b34801561032c57600080fd5b5061030a61033b366004611934565b610aeb565b34801561034c57600080fd5b506102b361035b366004611934565b610b0c565b34801561036c57600080fd5b5061030a61037b366004611934565b610b50565b34801561038c57600080fd5b506102b361039b366004611822565b610dbd565b3480156103ac57600080fd5b5061030a610e44565b3480156103c157600080fd5b506102b36103d0366004611822565b610e4a565b3480156103e157600080fd5b5061030a610eab565b3480156103f657600080fd5b506102b3610405366004611934565b610eb1565b34801561041657600080fd5b5061030a610425366004611934565b610ef5565b34801561043657600080fd5b5061043f610f05565b6040516103179190611964565b34801561045857600080fd5b506102b361046736600461185a565b610f14565b34801561047857600080fd5b506102b361048736600461185a565b610f66565b34801561049857600080fd5b506102b3610fb8565b3480156104ad57600080fd5b506102b3611003565b3480156104c257600080fd5b506102b36104d1366004611934565b61107a565b3480156104e257600080fd5b506102b36104f1366004611822565b6110ca565b34801561050257600080fd5b5061043f61112b565b34801561051757600080fd5b5061030a610526366004611822565b61113a565b34801561053757600080fd5b506102b361114c565b34801561054c57600080fd5b5061043f61128d565b61043f6106c8565b34801561056957600080fd5b506102b3610578366004611822565b61129c565b34801561058957600080fd5b5061030a6113fe565b34801561059e57600080fd5b506102b36105ad366004611934565b611404565b3480156105be57600080fd5b5061030a6105cd366004611934565b611448565b3480156105de57600080fd5b5061030a611458565b3480156105f357600080fd5b506102b3610602366004611934565b61145e565b34801561061357600080fd5b5061030a610622366004611934565b6114a2565b34801561063357600080fd5b5061030a6114b2565b34801561064857600080fd5b506106516114b8565b60405161031791906119b5565b34801561066a57600080fd5b506102b3610679366004611934565b6114c8565b34801561068a57600080fd5b5061030a61150c565b34801561069f57600080fd5b506102b36106ae366004611822565b611512565b3480156106bf57600080fd5b5061030a611583565b60008054600160a01b900460ff166106fb5760405162461bcd60e51b81526004016106f290611ba2565b60405180910390fd5b601154336000908152601260205260409020546107189034611589565b1115801561074157506010543360009081526012602052604090205461073e9034611589565b10155b61075d5760405162461bcd60e51b81526004016106f290611c45565b6000806107693461159c565b9050600061077634610b50565b9050806108225760015460405163a9059cbb60e01b81526001600160a01b039091169063a9059cbb906107af903390869060040161199c565b602060405180830381600087803b1580156107c957600080fd5b505af11580156107dd573d6000803e3d6000fd5b505050506040513d601f19601f820116820180604052508101906108019190611914565b61081d5760405162461bcd60e51b81526004016106f290611ab1565b61083f565b61083c61082e34610b50565b836108376115dc565b6115e0565b92505b81600560008282546108519190611c85565b9091555050336000908152601260205260409020546108709034611589565b3360009081526012602052604090205560075461088e903490611c85565b6007819055600e5411156108db576013546040516001600160a01b03909116903480156108fc02916000818181858888f193505050501580156108d5573d6000803e3d6000fd5b50610929565b6013546001600160a01b03166108fc6108ff60646108f9348261174e565b9061175a565b6040518115909202916000818181858888f19350505050158015610927573d6000803e3d6000fd5b505b600c546007541115610943576000805460ff60a01b191690555b509091505090565b6109536115dc565b6001600160a01b031661096461112b565b6001600160a01b03161461098a5760405162461bcd60e51b81526004016106f290611bd9565b600054600160a01b900460ff16156109b45760405162461bcd60e51b81526004016106f290611c0e565b6000805460ff60a01b1916600160a01b179055565b6109d16115dc565b6001600160a01b03166109e261112b565b6001600160a01b031614610a085760405162461bcd60e51b81526004016106f290611bd9565b60005b8151811015610a8f57610a50606483600181518110610a3a57634e487b7160e01b600052603260045260246000fd5b602002602001015161175a90919063ffffffff16565b60098281548110610a7157634e487b7160e01b600052603260045260246000fd5b60009182526020909120015580610a8781611e07565b915050610a0b565b5050565b610a9b6115dc565b6001600160a01b0316610aac61112b565b6001600160a01b031614610ad25760405162461bcd60e51b81526004016106f290611bd9565b8051610a8f90600a9060208401906117c2565b60045481565b60098181548110610afb57600080fd5b600091825260209091200154905081565b610b146115dc565b6001600160a01b0316610b2561112b565b6001600160a01b031614610b4b5760405162461bcd60e51b81526004016106f290611bd9565b600455565b60008060009050600b600081548110610b7957634e487b7160e01b600052603260045260246000fd5b9060005260206000200154670de0b6b3a7640000610b979190611dd1565b8311610ba557506000610db7565b600b600181548110610bc757634e487b7160e01b600052603260045260246000fd5b9060005260206000200154670de0b6b3a7640000610be59190611dd1565b8311610c3757600a600181548110610c0d57634e487b7160e01b600052603260045260246000fd5b906000526020600020015462015180610c269190611dd1565b610c309042611c85565b9050610db7565b600b600281548110610c5957634e487b7160e01b600052603260045260246000fd5b9060005260206000200154670de0b6b3a7640000610c779190611dd1565b8311610c9f57600a600281548110610c0d57634e487b7160e01b600052603260045260246000fd5b600b600381548110610cc157634e487b7160e01b600052603260045260246000fd5b9060005260206000200154670de0b6b3a7640000610cdf9190611dd1565b8311610d0757600a600381548110610c0d57634e487b7160e01b600052603260045260246000fd5b600b600481548110610d2957634e487b7160e01b600052603260045260246000fd5b9060005260206000200154670de0b6b3a7640000610d479190611dd1565b8311610d6f57600a600481548110610c0d57634e487b7160e01b600052603260045260246000fd5b600a600581548110610d9157634e487b7160e01b600052603260045260246000fd5b906000526020600020015462015180610daa9190611dd1565b610db49042611c85565b90505b92915050565b610dc56115dc565b6001600160a01b0316610dd661112b565b6001600160a01b031614610dfc5760405162461bcd60e51b81526004016106f290611bd9565b6001600160a01b038116610e225760405162461bcd60e51b81526004016106f290611a1d565b600180546001600160a01b0319166001600160a01b0392909216919091179055565b60025481565b610e526115dc565b6001600160a01b0316610e6361112b565b6001600160a01b031614610e895760405162461bcd60e51b81526004016106f290611bd9565b601380546001600160a01b0319166001600160a01b0392909216919091179055565b60055481565b610eb96115dc565b6001600160a01b0316610eca61112b565b6001600160a01b031614610ef05760405162461bcd60e51b81526004016106f290611bd9565b600355565b60088181548110610afb57600080fd5b6013546001600160a01b031681565b610f1c6115dc565b6001600160a01b0316610f2d61112b565b6001600160a01b031614610f535760405162461bcd60e51b81526004016106f290611bd9565b8051610a8f90600b9060208401906117c2565b610f6e6115dc565b6001600160a01b0316610f7f61112b565b6001600160a01b031614610fa55760405162461bcd60e51b81526004016106f290611bd9565b8051610a8f9060089060208401906117c2565b610fc06115dc565b6001600160a01b0316610fd161112b565b6001600160a01b031614610ff75760405162461bcd60e51b81526004016106f290611bd9565b6110016000611766565b565b61100b6115dc565b6001600160a01b031661101c61112b565b6001600160a01b0316146110425760405162461bcd60e51b81526004016106f290611bd9565b600054600160a01b900460ff1661106b5760405162461bcd60e51b81526004016106f290611b0e565b6000805460ff60a01b19169055565b6110826115dc565b6001600160a01b031661109361112b565b6001600160a01b0316146110b95760405162461bcd60e51b81526004016106f290611bd9565b6110c481606461175a565b60105550565b6110d26115dc565b6001600160a01b03166110e361112b565b6001600160a01b0316146111095760405162461bcd60e51b81526004016106f290611bd9565b600f80546001600160a01b0319166001600160a01b0392909216919091179055565b6000546001600160a01b031690565b60126020526000908152604090205481565b6111546115dc565b6001600160a01b031661116561112b565b6001600160a01b03161461118b5760405162461bcd60e51b81526004016106f290611bd9565b600054600160a01b900460ff16156111b55760405162461bcd60e51b81526004016106f290611b45565b6001546040516370a0823160e01b81526001600160a01b03909116906342966c689082906370a08231906111ed903090600401611964565b60206040518083038186803b15801561120557600080fd5b505afa158015611219573d6000803e3d6000fd5b505050506040513d601f19601f8201168201806040525081019061123d919061194c565b6040518263ffffffff1660e01b81526004016112599190611c7c565b600060405180830381600087803b15801561127357600080fd5b505af1158015611287573d6000803e3d6000fd5b50505050565b6001546001600160a01b031681565b6112a46115dc565b6001600160a01b03166112b561112b565b6001600160a01b0316146112db5760405162461bcd60e51b81526004016106f290611bd9565b600054600160a01b900460ff16156113055760405162461bcd60e51b81526004016106f2906119c0565b6001546040516370a0823160e01b81526001600160a01b039091169063a9059cbb90839083906370a082319061133f903090600401611964565b60206040518083038186803b15801561135757600080fd5b505afa15801561136b573d6000803e3d6000fd5b505050506040513d601f19601f8201168201806040525081019061138f919061194c565b6040518363ffffffff1660e01b81526004016113ac92919061199c565b602060405180830381600087803b1580156113c657600080fd5b505af11580156113da573d6000803e3d6000fd5b505050506040513d601f19601f82011682018060405250810190610a8f9190611914565b600c5481565b61140c6115dc565b6001600160a01b031661141d61112b565b6001600160a01b0316146114435760405162461bcd60e51b81526004016106f290611bd9565b600255565b600b8181548110610afb57600080fd5b60075481565b6114666115dc565b6001600160a01b031661147761112b565b6001600160a01b03161461149d5760405162461bcd60e51b81526004016106f290611bd9565b600c55565b600a8181548110610afb57600080fd5b60035481565b600054600160a01b900460ff1681565b6114d06115dc565b6001600160a01b03166114e161112b565b6001600160a01b0316146115075760405162461bcd60e51b81526004016106f290611bd9565b601155565b60105481565b61151a6115dc565b6001600160a01b031661152b61112b565b6001600160a01b0316146115515760405162461bcd60e51b81526004016106f290611bd9565b6001600160a01b0381166115775760405162461bcd60e51b81526004016106f290611a54565b61158081611766565b50565b60115481565b60006115958284611c85565b9392505050565b6000610db76115c36004546115bd60025460126117b690919063ffffffff16565b90611589565b6115ce90600a611d03565b6003546108f990859061174e565b3390565b600f54604051630a9ef92760e01b815260009182916001600160a01b0390911690630a9ef92790611617908690899060040161199c565b602060405180830381600087803b15801561163157600080fd5b505af1158015611645573d6000803e3d6000fd5b505050506040513d601f19601f82011682018060405250810190611669919061183e565b90507f4459976dae5d173eda0ac09c39b840bed814c9d1e490e8b9ba23148e4b19a83781848660405161169e93929190611978565b60405180910390a160015460405163a9059cbb60e01b81526001600160a01b039091169063a9059cbb906116d8908490889060040161199c565b602060405180830381600087803b1580156116f257600080fd5b505af1158015611706573d6000803e3d6000fd5b505050506040513d601f19601f8201168201806040525081019061172a9190611914565b6117465760405162461bcd60e51b81526004016106f290611ab1565b949350505050565b60006115958284611dd1565b60006115958284611c9d565b600080546001600160a01b038381166001600160a01b0319831681178455604051919092169283917f8be0079c531659141344cd1fd0a4f28419497f9722a3daafe3b4186f6b6457e09190a35050565b60006115958284611df0565b8280548282559060005260206000209081019282156117fd579160200282015b828111156117fd5782518255916020019190600101906117e2565b5061180992915061180d565b5090565b5b80821115611809576000815560010161180e565b600060208284031215611833578081fd5b813561159581611e4e565b60006020828403121561184f578081fd5b815161159581611e4e565b6000602080838503121561186c578182fd5b823567ffffffffffffffff80821115611883578384fd5b818501915085601f830112611896578384fd5b8135818111156118a8576118a8611e38565b838102604051858282010181811085821117156118c7576118c7611e38565b604052828152858101935084860182860187018a10156118e5578788fd5b8795505b838610156119075780358552600195909501949386019386016118e9565b5098975050505050505050565b600060208284031215611925578081fd5b81518015158114611595578182fd5b600060208284031215611945578081fd5b5035919050565b60006020828403121561195d578081fd5b5051919050565b6001600160a01b0391909116815260200190565b6001600160a01b039384168152919092166020820152604081019190915260600190565b6001600160a01b03929092168252602082015260400190565b901515815260200190565b60208082526032908201527f596f752063616e6e6f742067657420746f6b656e7320756e74696c207468652060408201527f70726573616c6520697320636c6f7365642e0000000000000000000000000000606082015260800190565b6020808252601f908201527f546f6b656e2061646472657373207a65726f206e6f7420616c6c6f7765642e00604082015260600190565b60208082526026908201527f4f776e61626c653a206e6577206f776e657220697320746865207a65726f206160408201527f6464726573730000000000000000000000000000000000000000000000000000606082015260800190565b60208082526029908201527f496e73756666696369656e742062616c616e6365206f662070726573616c652060408201527f636f6e7472616374210000000000000000000000000000000000000000000000606082015260800190565b60208082526018908201527f50726573616c65206973206e6f74206f70656e207965742e0000000000000000604082015260600190565b60208082526034908201527f596f752063616e6e6f74206275726e20746f6b656e7320756e7469746c20746860408201527f652070726573616c6520697320636c6f7365642e000000000000000000000000606082015260800190565b60208082526014908201527f50726573616c65206973206e6f74206f70656e2e000000000000000000000000604082015260600190565b6020808252818101527f4f776e61626c653a2063616c6c6572206973206e6f7420746865206f776e6572604082015260600190565b6020808252600f908201527f50726573616c65206973206f70656e0000000000000000000000000000000000604082015260600190565b60208082526014908201527f496e7374616c6c6d656e7420496e76616c69642e000000000000000000000000604082015260600190565b90815260200190565b60008219821115611c9857611c98611e22565b500190565b600082611cb857634e487b7160e01b81526012600452602481fd5b500490565b80825b6001808611611ccf5750611cfa565b818704821115611ce157611ce1611e22565b80861615611cee57918102915b9490941c938002611cc0565b94509492505050565b60006115956000198484600082611d1c57506001611595565b81611d2957506000611595565b8160018114611d3f5760028114611d4957611d76565b6001915050611595565b60ff841115611d5a57611d5a611e22565b6001841b915084821115611d7057611d70611e22565b50611595565b5060208310610133831016604e8410600b8410161715611da9575081810a83811115611da457611da4611e22565b611595565b611db68484846001611cbd565b808604821115611dc857611dc8611e22565b02949350505050565b6000816000190483118215151615611deb57611deb611e22565b500290565b600082821015611e0257611e02611e22565b500390565b6000600019821415611e1b57611e1b611e22565b5060010190565b634e487b7160e01b600052601160045260246000fd5b634e487b7160e01b600052604160045260246000fd5b6001600160a01b038116811461158057600080fdfea26469706673582212202692c8b30c98e3f36a2517f15c13214edc7eb332776aed379733998aed3ada0264736f6c63430008000033",
  "immutableReferences": {},
  "source": "/**\n *Submitted for verification at BscScan.com on 2021-04-11\n */\n\n// SPDX-License-Identifier: UNLICENSED\nimport \"./TokenLockFactory.sol\";\npragma solidity ^0.8.0;\n\nimport \"@openzeppelin/contracts/interfaces/IERC20.sol\";\nimport \"@openzeppelin/contracts/utils/Context.sol\";\nimport \"@openzeppelin/contracts/access/Ownable.sol\";\nimport \"@openzeppelin/contracts/utils/math/SafeMath.sol\";\nimport \"@openzeppelin/contracts/utils/Address.sol\";\n\ninterface IToken {\n    function transfer(address to, uint256 tokens)\n        external\n        returns (bool success);\n\n    function burn(uint256 _amount) external;\n\n    function balanceOf(address tokenOwner)\n        external\n        view\n        returns (uint256 balance);\n}\n\ncontract Presale is Ownable {\n    using SafeMath for uint256;\n    event WalletCreated(address walletAddress,address userAddress,uint256 amount);\n    bool public isPresaleOpen = true;\n\n    //@dev ERC20 token address and decimals\n    address public tokenAddress=0xdE15a1D94eE79e62FC0e919352503B8d04489189;\n    uint256 public tokenDecimals = 9;\n\n    //@dev amount of tokens per ether 100 indicates 1 token per eth\n    uint256 public tokenRatePerEth = 200000;\n    //@dev decimal for tokenRatePerEth,\n    //2 means if you want 100 tokens per eth then set the rate as 100 + number of rateDecimals i.e => 10000\n    uint256 public rateDecimals = 0;\n    uint256 public tokenSold = 0;\n    bool private allowance = false;\n    uint256 public totalBNBAmount = 0;\n    uint256[] public rPercent = [130, 120, 110, 100];\n    uint256[] public rStep = [200, 400, 600, 800];\n    uint256[] public rLockinPeriod = [0,30,60,180];\n    uint256[] public priceBrackets = [1, 2, 3, 4];\n\n    uint256 public hardcap = 1000000000000000000000;\n    address private dev;\n    uint256 private MaxValue;\n    ITimeLockedWalletFactory walletFactory;\n    //@dev max and min token buy limit per account\n    uint256 public minEthLimit = 1;\n    uint256 public maxEthLimit = ~uint256(0);\n\n    mapping(address => uint256) public usersInvestments;\n\n    address public recipient;\n\n    constructor(\n        address _token,\n        address _recipient,\n        uint256 _MaxValue\n    ) {\n        tokenAddress = _token;\n        recipient = _recipient;\n\n        MaxValue = _MaxValue;\n    }\n\n    function setWalletFactory(address _walletFactory) external onlyOwner {\n        walletFactory = ITimeLockedWalletFactory(_walletFactory);\n    }\n\n    function setRecipient(address _recipient) external onlyOwner {\n        recipient = _recipient;\n    }\n\n    function setRStep(uint256[] memory _rStep) external onlyOwner {\n        for (uint256 i = 0; i < _rStep.length; i++) {\n            rStep[i] = _rStep[1].div(100);\n        }\n    }\n\n    function setPriceBrackets(uint256[] memory _priceBrackets)\n        external\n        onlyOwner\n    {\n        priceBrackets = _priceBrackets;\n    }\n\n    function setRPercentage(uint256[] memory _rPercent) external onlyOwner {\n        rPercent = _rPercent;\n    }\n\n    function setRLockine(uint256[] memory _rLockinPeriod) external onlyOwner {\n        rLockinPeriod = _rLockinPeriod;\n    }\n\n    function setHardcap(uint256 _hardcap) external onlyOwner {\n        hardcap = _hardcap;\n    }\n\n    function startPresale() external onlyOwner {\n        require(!isPresaleOpen, \"Presale is open\");\n\n        isPresaleOpen = true;\n    }\n\n    function closePrsale() external onlyOwner {\n        require(isPresaleOpen, \"Presale is not open yet.\");\n\n        isPresaleOpen = false;\n    }\n\n    function setTokenAddress(address token) external onlyOwner {\n        require(token != address(0), \"Token address zero not allowed.\");\n\n        tokenAddress = token;\n    }\n\n    function setTokenDecimals(uint256 decimals) external onlyOwner {\n        tokenDecimals = decimals;\n    }\n\n    function setMinEthLimit(uint256 amount) external onlyOwner {\n        minEthLimit = amount.div(100);\n    }\n\n    function setMaxEthLimit(uint256 amount) external onlyOwner {\n        maxEthLimit = amount;\n    }\n\n    function setTokenRatePerEth(uint256 rate) external onlyOwner {\n        tokenRatePerEth = rate;\n    }\n\n    function setRateDecimals(uint256 decimals) external onlyOwner {\n        rateDecimals = decimals;\n    }\n\n    receive() external payable {\n        buyToken();\n    }\n\n    function buyToken() public payable returns (address) {\n        require(isPresaleOpen, \"Presale is not open.\");\n        require(\n            usersInvestments[msg.sender].add(msg.value) <= maxEthLimit &&\n                usersInvestments[msg.sender].add(msg.value) >= minEthLimit,\n            \"Installment Invalid.\"\n        );\n        address wallet = address(0);\n\n        //@dev calculate the amount of tokens to transfer for the given eth\n        uint256 tokenAmount = getTokensPerEth(msg.value);\n            \n        //  if (totalBNBAmount <= rStep[0] * (10**18)) {\n        //      tokenAmount = tokenAmount.mul(rPercent[0]).div(100);\n        //  } else if (totalBNBAmount <= rStep[1] * (10**18)) {\n        //     tokenAmount = tokenAmount.mul(rPercent[1]).div(100);\n        //  } else if (totalBNBAmount <= rStep[2] * (10**18)) {\n        //     tokenAmount = tokenAmount.mul(rPercent[2]).div(100);\n        //  } else if (totalBNBAmount <= rStep[3] * (10**18)) {\n        //      tokenAmount = tokenAmount.mul(rPercent[3]).div(100);\n        //  } else if (totalBNBAmount < rStep[4] * (10**18)) {\n        //     tokenAmount = tokenAmount.mul(rPercent[4]).div(100);\n        // }\n        uint256 range = getBracketRange(msg.value);\n        if (range == 0) {\n            require(\n                IToken(tokenAddress).transfer(msg.sender, tokenAmount),\n                \"Insufficient balance of presale contract!\"\n            );\n        } else {\n            wallet = createTokenLockedWallets(\n                getBracketRange(msg.value),\n                tokenAmount,\n                _msgSender()\n            );\n        }\n        tokenSold += tokenAmount;\n\n        usersInvestments[msg.sender] = usersInvestments[msg.sender].add(\n            msg.value\n        );\n\n        totalBNBAmount = totalBNBAmount + msg.value;\n        //@dev send received funds to the owner\n        if (totalBNBAmount < MaxValue) {\n            payable(recipient).transfer(msg.value);\n        } else {\n            payable(recipient).transfer(msg.value.mul(100).div(100));\n        }\n        if (totalBNBAmount > hardcap) {\n            isPresaleOpen = false;\n        }\n        return wallet;\n    }\n\n    function createTokenLockedWallets(\n        uint256 duration,\n        uint256 tokenAmount,\n        address _userAddress\n    ) private returns (address wallet) {\n        address timeLockedWallet = walletFactory.newTimeLockedWallet(\n            _userAddress,\n            duration\n        );\n        emit WalletCreated(timeLockedWallet,_userAddress,tokenAmount);\n        require(\n            IToken(tokenAddress).transfer(timeLockedWallet, tokenAmount),\n            \"Insufficient balance of presale contract!\"\n        );\n        return timeLockedWallet;\n    }\n\n    function getTokensPerEth(uint256 amount) internal view returns (uint256) {\n        return\n            amount.mul(tokenRatePerEth).div(\n                10**(uint256(18).sub(tokenDecimals).add(rateDecimals))\n            );\n    }\n\n    function burnUnsoldTokens() external onlyOwner {\n        require(\n            !isPresaleOpen,\n            \"You cannot burn tokens untitl the presale is closed.\"\n        );\n\n        IToken(tokenAddress).burn(\n            IToken(tokenAddress).balanceOf(address(this))\n        );\n    }\n\n    function getUnsoldTokens(address to) external onlyOwner {\n        require(\n            !isPresaleOpen,\n            \"You cannot get tokens until the presale is closed.\"\n        );\n\n        IToken(tokenAddress).transfer(\n            to,\n            IToken(tokenAddress).balanceOf(address(this))\n        );\n    }\n\n    function getBracketRange(uint256 amount)\n        public\n        view\n        returns (uint256 range)\n    {\n      uint256 retrunDuration=0;\n    \n        // for(uint256 i=0;i <priceBrackets.length;i++){\n        //    if( (amount <= priceBrackets[i]*10**18)  ){\n        //     retrunDuration = (block.timestamp+ (rLockinPeriod[i] * 1 days)) ;\n        //   }\n        // }\n        if(amount <= priceBrackets[0]*10**18){\n            retrunDuration = 0;\n        }\n        else if(amount <= priceBrackets[1]*10**18){\n            retrunDuration = (block.timestamp+ (rLockinPeriod[1] * 1 days)) ;\n        }\n        else if(amount <= priceBrackets[2]*10**18){\n            retrunDuration = (block.timestamp+ (rLockinPeriod[2] * 1 days)) ;\n        }\n        else if(amount <= priceBrackets[3]*10**18){\n            retrunDuration = (block.timestamp+ (rLockinPeriod[3] * 1 days)) ;\n        }\n        else if(amount <= priceBrackets[4]*10**18){\n            retrunDuration = (block.timestamp+ (rLockinPeriod[4] * 1 days)) ;\n        }else {\n            retrunDuration = (block.timestamp+ (rLockinPeriod[5] * 1 days)) ;\n        }\n        \n        return  retrunDuration;\n    }\n}\n",
  "sourcePath": "/Users/crypto/Desktop/inhouse/the-troller/tournament/contracts/PreSale.sol",
  "compiler": {
    "name": "solc",
    "version": "0.8.0+commit.c7dfd78e.Emscripten.clang"
  },
  "schemaVersion": "3.4.3",
  "updatedAt": "2021-12-03T03:52:51.505Z",
  "networkType": "ethereum",
  "devdoc": {
    "kind": "dev",
    "methods": {
      "owner()": {
        "details": "Returns the address of the current owner."
      },
      "renounceOwnership()": {
        "details": "Leaves the contract without owner. It will not be possible to call `onlyOwner` functions anymore. Can only be called by the current owner. NOTE: Renouncing ownership will leave the contract without an owner, thereby removing any functionality that is only available to the owner."
      },
      "transferOwnership(address)": {
        "details": "Transfers ownership of the contract to a new account (`newOwner`). Can only be called by the current owner."
      }
    },
    "version": 1
  },
  "userdoc": {
    "kind": "user",
    "methods": {},
    "version": 1
  }
}