{
  "contractName": "TimeLockedWalletFactory",
  "abi": [
    {
      "anonymous": false,
      "inputs": [
        {
          "indexed": false,
          "internalType": "address",
          "name": "wallet",
          "type": "address"
        },
        {
          "indexed": false,
          "internalType": "address",
          "name": "from",
          "type": "address"
        },
        {
          "indexed": false,
          "internalType": "address",
          "name": "to",
          "type": "address"
        },
        {
          "indexed": false,
          "internalType": "uint256",
          "name": "createdAt",
          "type": "uint256"
        },
        {
          "indexed": false,
          "internalType": "uint256",
          "name": "unlockDate",
          "type": "uint256"
        }
      ],
      "name": "Created",
      "type": "event"
    },
    {
      "inputs": [
        {
          "internalType": "address",
          "name": "_user",
          "type": "address"
        }
      ],
      "name": "getWallets",
      "outputs": [
        {
          "internalType": "address[]",
          "name": "",
          "type": "address[]"
        }
      ],
      "stateMutability": "view",
      "type": "function"
    },
    {
      "inputs": [
        {
          "internalType": "address",
          "name": "_owner",
          "type": "address"
        },
        {
          "internalType": "uint256",
          "name": "_unlockDate",
          "type": "uint256"
        }
      ],
      "name": "newTimeLockedWallet",
      "outputs": [
        {
          "internalType": "address",
          "name": "wallet",
          "type": "address"
        }
      ],
      "stateMutability": "nonpayable",
      "type": "function"
    }
  ],
  "bytecode": "0x608060405234801561001057600080fd5b50610945806100206000396000f3fe608060405234801561001057600080fd5b50600436106100365760003560e01c80630a9ef9271461003b578063422c29a414610064575b600080fd5b61004e61004936600461025a565b610084565b60405161005b9190610283565b60405180910390f35b610077610072366004610239565b6101a0565b60405161005b91906102ef565b600033838360405161009590610215565b6100a1939291906102cb565b604051809103906000f0801580156100bd573d6000803e3d6000fd5b503360008181526020818152604082208054600181018255908352912001805473ffffffffffffffffffffffffffffffffffffffff19166001600160a01b03848116919091179091559192509084161461015b576001600160a01b0383811660009081526020818152604082208054600181018255908352912001805473ffffffffffffffffffffffffffffffffffffffff19169183169190911790555b7ff0f51ce8bf61058e1fe833930823622a4b0e3e7c0cbd93369fbc238b3a59031a8133854286604051610192959493929190610297565b60405180910390a192915050565b6001600160a01b0381166000908152602081815260409182902080548351818402810184019094528084526060939283018282801561020857602002820191906000526020600020905b81546001600160a01b031681526001909101906020018083116101ea575b505050505090505b919050565b6105d38061033d83390190565b80356001600160a01b038116811461021057600080fd5b60006020828403121561024a578081fd5b61025382610222565b9392505050565b6000806040838503121561026c578081fd5b61027583610222565b946020939093013593505050565b6001600160a01b0391909116815260200190565b6001600160a01b03958616815293851660208501529190931660408301526060820192909252608081019190915260a00190565b6001600160a01b039384168152919092166020820152604081019190915260600190565b6020808252825182820181905260009190848201906040850190845b818110156103305783516001600160a01b03168352928401929184019160010161030b565b5090969550505050505056fe608060405234801561001057600080fd5b506040516105d33803806105d383398101604081905261002f91610087565b600080546001600160a01b039485166001600160a01b0319918216179091556003805493909416921691909117909155600155426002556100c2565b80516001600160a01b038116811461008257600080fd5b919050565b60008060006060848603121561009b578283fd5b6100a48461006b565b92506100b26020850161006b565b9150604084015190509250925092565b610502806100d16000396000f3fe608060405234801561001057600080fd5b50600436106100725760003560e01c806369ac57211161005057806369ac5721146100ce5780638da5cb5b146100e3578063cf09e0d0146100eb57610072565b806302d05d3f146100775780630aae7a6b1461009557806349df728c146100b9575b600080fd5b61007f6100f3565b60405161008c91906103d3565b60405180910390f35b6100a86100a336600461036d565b610102565b60405161008c95949392919061040b565b6100cc6100c736600461036d565b6101b8565b005b6100d6610352565b60405161008c91906104c3565b61007f610358565b6100d6610367565b6000546001600160a01b031681565b6000806000806000808690506000816001600160a01b03166370a08231306040518263ffffffff1660e01b815260040161013c91906103d3565b60206040518083038186803b15801561015457600080fd5b505afa158015610168573d6000803e3d6000fd5b505050506040513d601f19601f8201168201806040525081019061018c91906103bb565b6000546003546001546002546001600160a01b039384169d939092169b50995097509095509350505050565b6001544210156101e35760405162461bcd60e51b81526004016101da9061048c565b60405180910390fd5b6003546001600160a01b0316331461020d5760405162461bcd60e51b81526004016101da90610455565b6040516370a0823160e01b815281906000906001600160a01b038316906370a082319061023e9030906004016103d3565b60206040518083038186803b15801561025657600080fd5b505afa15801561026a573d6000803e3d6000fd5b505050506040513d601f19601f8201168201806040525081019061028e91906103bb565b60405163a9059cbb60e01b81529091506001600160a01b0383169063a9059cbb906102bf903390859060040161043c565b602060405180830381600087803b1580156102d957600080fd5b505af11580156102ed573d6000803e3d6000fd5b505050506040513d601f19601f82011682018060405250810190610311919061039b565b507fa04c965e7d289704527a948915777d68bb4530fb4b08aa935fb958c0b7901ab9833383604051610345939291906103e7565b60405180910390a1505050565b60015481565b6003546001600160a01b031681565b60025481565b60006020828403121561037e578081fd5b81356001600160a01b0381168114610394578182fd5b9392505050565b6000602082840312156103ac578081fd5b81518015158114610394578182fd5b6000602082840312156103cc578081fd5b5051919050565b6001600160a01b0391909116815260200190565b6001600160a01b039384168152919092166020820152604081019190915260600190565b6001600160a01b03958616815293909416602084015260408301919091526060820152608081019190915260a00190565b6001600160a01b03929092168252602082015260400190565b60208082526015908201527f596f7520617265206e6f7420746865206f776e65720000000000000000000000604082015260600190565b6020808252601e908201527f556e6c6f636b2064617465206973206e6f742072656163686564207965740000604082015260600190565b9081526020019056fea264697066735822122069d8caaa286f91abe4baef29e7518d771e9b5479c381ee7e91760ed61c95e2cf64736f6c63430008000033a2646970667358221220edaa725e52bd2016d877c6d30f35a2d48db03b3225e00a1a7fad6c59036699b464736f6c63430008000033",
  "immutableReferences": {},
  "source": "pragma solidity ^0.8.0;\n\n// SPDX-License-Identifier: UNLICENSED\nimport '@openzeppelin/contracts/token/ERC20/ERC20.sol';\nimport '@openzeppelin/contracts/utils/Context.sol';\nimport '@openzeppelin/contracts/access/Ownable.sol';\npragma solidity ^0.8.0;\ncontract TimeLockedWallet {\n\n    address public creator;\n    uint256 public unlockDate;\n    uint256 public createdAt;\n    address public owner;\n\n     constructor(\n        address _creator,\n        address _owner,\n        uint256 _unlockDate\n    )  {\n        creator = _creator;\n        owner = address(_owner);\n        unlockDate = _unlockDate;\n        createdAt = block.timestamp;\n    }\n\n    // keep all the ether sent to this address\n    //  receive() external payable {\n    //     buyToken();\n    // }\n\n    // callable by owner only, after specified time\n    // function withdraw() onlyOwner public {\n    //    require(block.timestamp >= unlockDate);\n    //    //now send all the balance\n    //    msg.sender.transfer(this.balance);\n    //    emit Withdrew(msg.sender, this.balance);\n    // }\n\n    // callable by owner only, after specified time, only for Tokens implementing ERC20\n    function withdrawTokens(address _tokenContract)  public {\n       require(block.timestamp >= unlockDate, \"Unlock date is not reached yet\");\n       require( msg.sender==owner,\"You are not the owner\");\n       ERC20 token = ERC20(_tokenContract);\n       //now send all the token balance\n       uint256 tokenBalance = token.balanceOf(address(this));\n       token.transfer(msg.sender, tokenBalance);\n       emit WithdrewTokens(_tokenContract, msg.sender, tokenBalance);\n    }\n\n     function info(address _tokenContract) public view returns(address, address, uint256, uint256, uint256) {\n         ERC20 token = ERC20(_tokenContract);\n         uint256 balance = token.balanceOf(address(this));\n         return (creator, owner, unlockDate , createdAt, balance);\n     }\n\n    event Received(address from, uint256 amount);\n    event Withdrew(address to, uint256 amount);\n    event WithdrewTokens(address tokenContract, address to, uint256 amount);\n}\n\ninterface ITimeLockedWalletFactory {\n\n    function getWallets(address _user) external view returns (address[] memory);\n\n    function newTimeLockedWallet(address _owner, uint256 _unlockDate)\n        external\n        returns(address wallet);\n}\ncontract TimeLockedWalletFactory is ITimeLockedWalletFactory{\n \n    mapping(address => address[]) wallets;\n\n    function getWallets(address _user)  \n        override external view\n        returns (address[] memory)\n    {\n        return wallets[_user];\n    }\n\n    function newTimeLockedWallet(address _owner, uint256 _unlockDate)\n       override external \n        returns(address wallet)\n    {\n        // Create new wallet.\n        wallet = address(new TimeLockedWallet(msg.sender,_owner,_unlockDate));\n       \n       // ERC20 _tokenAddress = tokenAddress;\n        // Add wallet to sender's wallets.\n        wallets[msg.sender].push(wallet);\n\n        // If owner is the same as sender then add wallet to sender's wallets too.\n        if(msg.sender != _owner){\n            wallets[_owner].push(wallet);\n        }\n\n        // Send ether from this transaction to the created contract.\n       // wallet.transfer(msg.value);\n       //_tokenAddress.transfer(wallet,amount);\n\n        // Emit event.\n        emit Created(wallet, msg.sender, _owner, block.timestamp, _unlockDate);\n        return wallet;\n        \n    }\n\n    // // Prevents accidental sending of ether to the factory\n    // function () public {\n    //     revert();\n    // }\n\n    event Created(address wallet, address from, address to, uint256 createdAt, uint256 unlockDate);\n}",
  "sourcePath": "/Users/crypto/Desktop/inhouse/the-troller/tournament/contracts/TokenLockFactory.sol",
  "compiler": {
    "name": "solc",
    "version": "0.8.0+commit.c7dfd78e.Emscripten.clang"
  },
  "schemaVersion": "3.4.3",
  "updatedAt": "2021-12-03T03:52:51.516Z",
  "networkType": "ethereum",
  "devdoc": {
    "kind": "dev",
    "methods": {},
    "version": 1
  },
  "userdoc": {
    "kind": "user",
    "methods": {},
    "version": 1
  }
}